{
  "address": "0x3FaEb4Bca2F194122eb8543A14BeEc188FEB4Bc4",
  "abi": [
    {
      "anonymous": false,
      "inputs": [
        {
          "indexed": false,
          "internalType": "address",
          "name": "previousAdmin",
          "type": "address"
        },
        {
          "indexed": false,
          "internalType": "address",
          "name": "newAdmin",
          "type": "address"
        }
      ],
      "name": "AdminChanged",
      "type": "event"
    },
    {
      "anonymous": false,
      "inputs": [
        {
          "indexed": true,
          "internalType": "address",
          "name": "account",
          "type": "address"
        },
        {
          "indexed": true,
          "internalType": "address",
          "name": "operator",
          "type": "address"
        },
        {
          "indexed": false,
          "internalType": "bool",
          "name": "approved",
          "type": "bool"
        }
      ],
      "name": "ApprovalForAll",
      "type": "event"
    },
    {
      "anonymous": false,
      "inputs": [
        {
          "indexed": true,
          "internalType": "address",
          "name": "beacon",
          "type": "address"
        }
      ],
      "name": "BeaconUpgraded",
      "type": "event"
    },
    {
      "anonymous": false,
      "inputs": [
        {
          "indexed": false,
          "internalType": "uint8",
          "name": "version",
          "type": "uint8"
        }
      ],
      "name": "Initialized",
      "type": "event"
    },
    {
      "anonymous": false,
      "inputs": [
        {
          "indexed": false,
          "internalType": "address",
          "name": "account",
          "type": "address"
        }
      ],
      "name": "Paused",
      "type": "event"
    },
    {
      "anonymous": false,
      "inputs": [
        {
          "indexed": true,
          "internalType": "bytes32",
          "name": "role",
          "type": "bytes32"
        },
        {
          "indexed": true,
          "internalType": "bytes32",
          "name": "previousAdminRole",
          "type": "bytes32"
        },
        {
          "indexed": true,
          "internalType": "bytes32",
          "name": "newAdminRole",
          "type": "bytes32"
        }
      ],
      "name": "RoleAdminChanged",
      "type": "event"
    },
    {
      "anonymous": false,
      "inputs": [
        {
          "indexed": true,
          "internalType": "bytes32",
          "name": "role",
          "type": "bytes32"
        },
        {
          "indexed": true,
          "internalType": "address",
          "name": "account",
          "type": "address"
        },
        {
          "indexed": true,
          "internalType": "address",
          "name": "sender",
          "type": "address"
        }
      ],
      "name": "RoleGranted",
      "type": "event"
    },
    {
      "anonymous": false,
      "inputs": [
        {
          "indexed": true,
          "internalType": "bytes32",
          "name": "role",
          "type": "bytes32"
        },
        {
          "indexed": true,
          "internalType": "address",
          "name": "account",
          "type": "address"
        },
        {
          "indexed": true,
          "internalType": "address",
          "name": "sender",
          "type": "address"
        }
      ],
      "name": "RoleRevoked",
      "type": "event"
    },
    {
      "anonymous": false,
      "inputs": [
        {
          "indexed": true,
          "internalType": "address",
          "name": "operator",
          "type": "address"
        },
        {
          "indexed": true,
          "internalType": "address",
          "name": "from",
          "type": "address"
        },
        {
          "indexed": true,
          "internalType": "address",
          "name": "to",
          "type": "address"
        },
        {
          "indexed": false,
          "internalType": "uint256[]",
          "name": "ids",
          "type": "uint256[]"
        },
        {
          "indexed": false,
          "internalType": "uint256[]",
          "name": "values",
          "type": "uint256[]"
        }
      ],
      "name": "TransferBatch",
      "type": "event"
    },
    {
      "anonymous": false,
      "inputs": [
        {
          "indexed": true,
          "internalType": "address",
          "name": "operator",
          "type": "address"
        },
        {
          "indexed": true,
          "internalType": "address",
          "name": "from",
          "type": "address"
        },
        {
          "indexed": true,
          "internalType": "address",
          "name": "to",
          "type": "address"
        },
        {
          "indexed": false,
          "internalType": "uint256",
          "name": "id",
          "type": "uint256"
        },
        {
          "indexed": false,
          "internalType": "uint256",
          "name": "value",
          "type": "uint256"
        }
      ],
      "name": "TransferSingle",
      "type": "event"
    },
    {
      "anonymous": false,
      "inputs": [
        {
          "indexed": false,
          "internalType": "string",
          "name": "value",
          "type": "string"
        },
        {
          "indexed": true,
          "internalType": "uint256",
          "name": "id",
          "type": "uint256"
        }
      ],
      "name": "URI",
      "type": "event"
    },
    {
      "anonymous": false,
      "inputs": [
        {
          "indexed": false,
          "internalType": "address",
          "name": "account",
          "type": "address"
        }
      ],
      "name": "Unpaused",
      "type": "event"
    },
    {
      "anonymous": false,
      "inputs": [
        {
          "indexed": true,
          "internalType": "address",
          "name": "implementation",
          "type": "address"
        }
      ],
      "name": "Upgraded",
      "type": "event"
    },
    {
      "inputs": [],
      "name": "BUSINESS",
      "outputs": [
        {
          "internalType": "uint256",
          "name": "",
          "type": "uint256"
        }
      ],
      "stateMutability": "view",
      "type": "function"
    },
    {
      "inputs": [],
      "name": "DEFAULT_ADMIN_ROLE",
      "outputs": [
        {
          "internalType": "bytes32",
          "name": "",
          "type": "bytes32"
        }
      ],
      "stateMutability": "view",
      "type": "function"
    },
    {
      "inputs": [],
      "name": "INT_INVESTOR",
      "outputs": [
        {
          "internalType": "uint256",
          "name": "",
          "type": "uint256"
        }
      ],
      "stateMutability": "view",
      "type": "function"
    },
    {
      "inputs": [],
      "name": "INT_PERSONA",
      "outputs": [
        {
          "internalType": "uint256",
          "name": "",
          "type": "uint256"
        }
      ],
      "stateMutability": "view",
      "type": "function"
    },
    {
      "inputs": [],
      "name": "US_INVERSTOR",
      "outputs": [
        {
          "internalType": "uint256",
          "name": "",
          "type": "uint256"
        }
      ],
      "stateMutability": "view",
      "type": "function"
    },
    {
      "inputs": [],
      "name": "US_PERSONA",
      "outputs": [
        {
          "internalType": "uint256",
          "name": "",
          "type": "uint256"
        }
      ],
      "stateMutability": "view",
      "type": "function"
    },
    {
      "inputs": [
        {
          "internalType": "address",
          "name": "upgrader",
          "type": "address"
        },
        {
          "internalType": "string",
          "name": "uri_",
          "type": "string"
        }
      ],
      "name": "__IDToken_init",
      "outputs": [],
      "stateMutability": "nonpayable",
      "type": "function"
    },
    {
      "inputs": [
        {
          "internalType": "address",
          "name": "account",
          "type": "address"
        },
        {
          "internalType": "uint256",
          "name": "id",
          "type": "uint256"
        }
      ],
      "name": "balanceOf",
      "outputs": [
        {
          "internalType": "uint256",
          "name": "",
          "type": "uint256"
        }
      ],
      "stateMutability": "view",
      "type": "function"
    },
    {
      "inputs": [
        {
          "internalType": "address[]",
          "name": "accounts",
          "type": "address[]"
        },
        {
          "internalType": "uint256[]",
          "name": "ids",
          "type": "uint256[]"
        }
      ],
      "name": "balanceOfBatch",
      "outputs": [
        {
          "internalType": "uint256[]",
          "name": "",
          "type": "uint256[]"
        }
      ],
      "stateMutability": "view",
      "type": "function"
    },
    {
      "inputs": [
        {
          "internalType": "uint256",
          "name": "id",
          "type": "uint256"
        }
      ],
      "name": "exists",
      "outputs": [
        {
          "internalType": "bool",
          "name": "",
          "type": "bool"
        }
      ],
      "stateMutability": "view",
      "type": "function"
    },
    {
      "inputs": [
        {
          "internalType": "bytes32",
          "name": "role",
          "type": "bytes32"
        }
      ],
      "name": "getRoleAdmin",
      "outputs": [
        {
          "internalType": "bytes32",
          "name": "",
          "type": "bytes32"
        }
      ],
      "stateMutability": "view",
      "type": "function"
    },
    {
      "inputs": [
        {
          "internalType": "address",
          "name": "minter",
          "type": "address"
        },
        {
          "internalType": "uint256",
          "name": "id",
          "type": "uint256"
        }
      ],
      "name": "grantMinterRole",
      "outputs": [
        {
          "internalType": "bool",
          "name": "",
          "type": "bool"
        }
      ],
      "stateMutability": "nonpayable",
      "type": "function"
    },
    {
      "inputs": [
        {
          "internalType": "bytes32",
          "name": "role",
          "type": "bytes32"
        },
        {
          "internalType": "address",
          "name": "account",
          "type": "address"
        }
      ],
      "name": "grantRole",
      "outputs": [],
      "stateMutability": "nonpayable",
      "type": "function"
    },
    {
      "inputs": [
        {
          "internalType": "bytes32",
          "name": "role",
          "type": "bytes32"
        },
        {
          "internalType": "address",
          "name": "account",
          "type": "address"
        }
      ],
      "name": "hasRole",
      "outputs": [
        {
          "internalType": "bool",
          "name": "",
          "type": "bool"
        }
      ],
      "stateMutability": "view",
      "type": "function"
    },
    {
      "inputs": [
        {
          "internalType": "address",
          "name": "account",
          "type": "address"
        },
        {
          "internalType": "address",
          "name": "operator",
          "type": "address"
        }
      ],
      "name": "isApprovedForAll",
      "outputs": [
        {
          "internalType": "bool",
          "name": "",
          "type": "bool"
        }
      ],
      "stateMutability": "view",
      "type": "function"
    },
    {
      "inputs": [
        {
          "internalType": "uint256",
          "name": "id",
          "type": "uint256"
        }
      ],
      "name": "mint",
      "outputs": [],
      "stateMutability": "nonpayable",
      "type": "function"
    },
    {
      "inputs": [],
      "name": "name",
      "outputs": [
        {
          "internalType": "string",
          "name": "",
          "type": "string"
        }
      ],
      "stateMutability": "pure",
      "type": "function"
    },
    {
      "inputs": [],
      "name": "paused",
      "outputs": [
        {
          "internalType": "bool",
          "name": "",
          "type": "bool"
        }
      ],
      "stateMutability": "view",
      "type": "function"
    },
    {
      "inputs": [],
      "name": "proxiableUUID",
      "outputs": [
        {
          "internalType": "bytes32",
          "name": "",
          "type": "bytes32"
        }
      ],
      "stateMutability": "view",
      "type": "function"
    },
    {
      "inputs": [
        {
          "internalType": "bytes32",
          "name": "role",
          "type": "bytes32"
        },
        {
          "internalType": "address",
          "name": "account",
          "type": "address"
        }
      ],
      "name": "renounceRole",
      "outputs": [],
      "stateMutability": "nonpayable",
      "type": "function"
    },
    {
      "inputs": [
        {
          "internalType": "bytes32",
          "name": "role",
          "type": "bytes32"
        },
        {
          "internalType": "address",
          "name": "account",
          "type": "address"
        }
      ],
      "name": "revokeRole",
      "outputs": [],
      "stateMutability": "nonpayable",
      "type": "function"
    },
    {
      "inputs": [
        {
          "internalType": "address",
          "name": "from",
          "type": "address"
        },
        {
          "internalType": "address",
          "name": "to",
          "type": "address"
        },
        {
          "internalType": "uint256[]",
          "name": "ids",
          "type": "uint256[]"
        },
        {
          "internalType": "uint256[]",
          "name": "amounts",
          "type": "uint256[]"
        },
        {
          "internalType": "bytes",
          "name": "data",
          "type": "bytes"
        }
      ],
      "name": "safeBatchTransferFrom",
      "outputs": [],
      "stateMutability": "nonpayable",
      "type": "function"
    },
    {
      "inputs": [
        {
          "internalType": "address",
          "name": "from",
          "type": "address"
        },
        {
          "internalType": "address",
          "name": "to",
          "type": "address"
        },
        {
          "internalType": "uint256",
          "name": "id",
          "type": "uint256"
        },
        {
          "internalType": "uint256",
          "name": "amount",
          "type": "uint256"
        },
        {
          "internalType": "bytes",
          "name": "data",
          "type": "bytes"
        }
      ],
      "name": "safeTransferFrom",
      "outputs": [],
      "stateMutability": "nonpayable",
      "type": "function"
    },
    {
      "inputs": [
        {
          "internalType": "address",
          "name": "operator",
          "type": "address"
        },
        {
          "internalType": "bool",
          "name": "approved",
          "type": "bool"
        }
      ],
      "name": "setApprovalForAll",
      "outputs": [],
      "stateMutability": "nonpayable",
      "type": "function"
    },
    {
      "inputs": [
        {
          "internalType": "bytes4",
          "name": "interfaceId",
          "type": "bytes4"
        }
      ],
      "name": "supportsInterface",
      "outputs": [
        {
          "internalType": "bool",
          "name": "",
          "type": "bool"
        }
      ],
      "stateMutability": "view",
      "type": "function"
    },
    {
      "inputs": [],
      "name": "symbol",
      "outputs": [
        {
          "internalType": "string",
          "name": "",
          "type": "string"
        }
      ],
      "stateMutability": "pure",
      "type": "function"
    },
    {
      "inputs": [
        {
          "internalType": "uint256",
          "name": "id",
          "type": "uint256"
        }
      ],
      "name": "totalSupply",
      "outputs": [
        {
          "internalType": "uint256",
          "name": "",
          "type": "uint256"
        }
      ],
      "stateMutability": "view",
      "type": "function"
    },
    {
      "inputs": [
        {
          "internalType": "string",
          "name": "uri_",
          "type": "string"
        }
      ],
      "name": "updateURI",
      "outputs": [],
      "stateMutability": "nonpayable",
      "type": "function"
    },
    {
      "inputs": [
        {
          "internalType": "address",
          "name": "newImplementation",
          "type": "address"
        }
      ],
      "name": "upgradeTo",
      "outputs": [],
      "stateMutability": "nonpayable",
      "type": "function"
    },
    {
      "inputs": [
        {
          "internalType": "address",
          "name": "newImplementation",
          "type": "address"
        },
        {
          "internalType": "bytes",
          "name": "data",
          "type": "bytes"
        }
      ],
      "name": "upgradeToAndCall",
      "outputs": [],
      "stateMutability": "payable",
      "type": "function"
    },
    {
      "inputs": [
        {
          "internalType": "uint256",
          "name": "",
          "type": "uint256"
        }
      ],
      "name": "uri",
      "outputs": [
        {
          "internalType": "string",
          "name": "",
          "type": "string"
        }
      ],
      "stateMutability": "view",
      "type": "function"
    },
    {
      "inputs": [],
      "name": "version",
      "outputs": [
        {
          "internalType": "string",
          "name": "",
          "type": "string"
        }
      ],
      "stateMutability": "pure",
      "type": "function"
    }
  ],
  "transactionHash": "0x8c94dc17c298311f602e879b13c547325297dea4487e85065642d4e9d78b810e",
  "args": [],
  "numDeployments": 1,
  "solcInputHash": "4da44126dbef963e2116c5ab71ac6e92",
  "bytecode": "0x60a06040523073ffffffffffffffffffffffffffffffffffffffff1660809073ffffffffffffffffffffffffffffffffffffffff1681525034801561004357600080fd5b50608051615ac06200007c60003960008181610ef301528181610f81015281816111940152818161122201526112e60152615ac06000f3fe6080604052600436106101e25760003560e01c80635c975abb11610102578063a22cb46511610095578063d547741f11610064578063d547741f1461071e578063e36c845014610747578063e985e9c514610772578063f242432a146107af576101e2565b8063a22cb46514610664578063b8af033c1461068d578063bd85b039146106b8578063c30f4a5a146106f5576101e2565b806391d14854116100d157806391d14854146105a857806395d89b41146105e5578063a0712d6814610610578063a217fddf14610639576101e2565b80635c975abb146104ea57806361bf19be146105155780636b03028b1461054057806390465df51461056b576101e2565b80632f2ff15d1161017a5780634f1ef286116101495780634f1ef2861461043b5780634f558e791461045757806352d1902d1461049457806354fd4d50146104bf576101e2565b80632f2ff15d1461038357806336568abe146103ac5780633659cfe6146103d55780634e1273f4146103fe576101e2565b806317cdf1a3116101b657806317cdf1a3146102c957806321299c51146102f2578063248a9ca31461031d5780632eb2c2d61461035a576101e2565b8062fdd58e146101e757806301ffc9a71461022457806306fdde03146102615780630e89341c1461028c575b600080fd5b3480156101f357600080fd5b5061020e60048036038101906102099190613692565b6107d8565b60405161021b91906136e1565b60405180910390f35b34801561023057600080fd5b5061024b60048036038101906102469190613754565b6108a1565b604051610258919061379c565b60405180910390f35b34801561026d57600080fd5b506102766109eb565b6040516102839190613847565b60405180910390f35b34801561029857600080fd5b506102b360048036038101906102ae9190613869565b610a28565b6040516102c09190613847565b60405180910390f35b3480156102d557600080fd5b506102f060048036038101906102eb91906139cb565b610abc565b005b3480156102fe57600080fd5b50610307610d87565b60405161031491906136e1565b60405180910390f35b34801561032957600080fd5b50610344600480360381019061033f9190613a5d565b610d8c565b6040516103519190613a99565b60405180910390f35b34801561036657600080fd5b50610381600480360381019061037c9190613c1d565b610dac565b005b34801561038f57600080fd5b506103aa60048036038101906103a59190613cec565b610e4d565b005b3480156103b857600080fd5b506103d360048036038101906103ce9190613cec565b610e6e565b005b3480156103e157600080fd5b506103fc60048036038101906103f79190613d2c565b610ef1565b005b34801561040a57600080fd5b5061042560048036038101906104209190613e1c565b611079565b6040516104329190613f52565b60405180910390f35b61045560048036038101906104509190613f74565b611192565b005b34801561046357600080fd5b5061047e60048036038101906104799190613869565b6112ce565b60405161048b919061379c565b60405180910390f35b3480156104a057600080fd5b506104a96112e2565b6040516104b69190613a99565b60405180910390f35b3480156104cb57600080fd5b506104d461139b565b6040516104e19190613847565b60405180910390f35b3480156104f657600080fd5b506104ff6113d8565b60405161050c919061379c565b60405180910390f35b34801561052157600080fd5b5061052a6113f0565b60405161053791906136e1565b60405180910390f35b34801561054c57600080fd5b506105556113f5565b60405161056291906136e1565b60405180910390f35b34801561057757600080fd5b50610592600480360381019061058d9190613692565b6113fa565b60405161059f919061379c565b60405180910390f35b3480156105b457600080fd5b506105cf60048036038101906105ca9190613cec565b6114ce565b6040516105dc919061379c565b60405180910390f35b3480156105f157600080fd5b506105fa611539565b6040516106079190613847565b60405180910390f35b34801561061c57600080fd5b5061063760048036038101906106329190613869565b611576565b005b34801561064557600080fd5b5061064e611645565b60405161065b9190613a99565b60405180910390f35b34801561067057600080fd5b5061068b60048036038101906106869190613ffc565b61164c565b005b34801561069957600080fd5b506106a2611662565b6040516106af91906136e1565b60405180910390f35b3480156106c457600080fd5b506106df60048036038101906106da9190613869565b611667565b6040516106ec91906136e1565b60405180910390f35b34801561070157600080fd5b5061071c6004803603810190610717919061403c565b611685565b005b34801561072a57600080fd5b5061074560048036038101906107409190613cec565b6116c8565b005b34801561075357600080fd5b5061075c6116e9565b60405161076991906136e1565b60405180910390f35b34801561077e57600080fd5b5061079960048036038101906107949190614085565b6116ee565b6040516107a6919061379c565b60405180910390f35b3480156107bb57600080fd5b506107d660048036038101906107d191906140c5565b611782565b005b60008073ffffffffffffffffffffffffffffffffffffffff168373ffffffffffffffffffffffffffffffffffffffff1603610848576040517f08c379a000000000000000000000000000000000000000000000000000000000815260040161083f906141ce565b60405180910390fd5b6065600083815260200190815260200160002060008473ffffffffffffffffffffffffffffffffffffffff1673ffffffffffffffffffffffffffffffffffffffff16815260200190815260200160002054905092915050565b60007fd9b67a26000000000000000000000000000000000000000000000000000000007bffffffffffffffffffffffffffffffffffffffffffffffffffffffff1916827bffffffffffffffffffffffffffffffffffffffffffffffffffffffff1916148061096c57507f0e89341c000000000000000000000000000000000000000000000000000000007bffffffffffffffffffffffffffffffffffffffffffffffffffffffff1916827bffffffffffffffffffffffffffffffffffffffffffffffffffffffff1916145b806109d457507fda8def73000000000000000000000000000000000000000000000000000000007bffffffffffffffffffffffffffffffffffffffffffffffffffffffff1916827bffffffffffffffffffffffffffffffffffffffffffffffffffffffff1916145b806109e457506109e382611823565b5b9050919050565b60606040518060400160405280600781526020017f4944546f6b656e00000000000000000000000000000000000000000000000000815250905090565b606060678054610a379061421d565b80601f0160208091040260200160405190810160405280929190818152602001828054610a639061421d565b8015610ab05780601f10610a8557610100808354040283529160200191610ab0565b820191906000526020600020905b815481529060010190602001808311610a9357829003601f168201915b50505050509050919050565b60008060019054906101000a900460ff16159050808015610aed5750600160008054906101000a900460ff1660ff16105b80610b1a5750610afc3061189d565b158015610b195750600160008054906101000a900460ff1660ff16145b5b610b59576040517f08c379a0000000000000000000000000000000000000000000000000000000008152600401610b50906142c0565b60405180910390fd5b60016000806101000a81548160ff021916908360ff1602179055508015610b96576001600060016101000a81548160ff0219169083151502179055505b610b9f826118c0565b610ba761191b565b610baf61196c565b610bb76119bd565b610c09604051602001610bc990614337565b60405160208183030381529060405280519060200120604051602001610bee90614337565b60405160208183030381529060405280519060200120611a16565b610c5b604051602001610c1b90614398565b60405160208183030381529060405280519060200120604051602001610c4090614337565b60405160208183030381529060405280519060200120611a16565b610cad604051602001610c6d906143f9565b60405160208183030381529060405280519060200120604051602001610c9290614337565b60405160208183030381529060405280519060200120611a16565b610ce2604051602001610cbf90614337565b60405160208183030381529060405280519060200120610cdd611a72565b611a7a565b610d10604051602001610cf4906143f9565b6040516020818303038152906040528051906020012084611a7a565b610d20610d1b611a72565b611a88565b610d2983611a88565b8015610d825760008060016101000a81548160ff0219169083151502179055507f7f26b83ff96e1f2b6a682f133852f6798a09c465da95921460cefb38474024986001604051610d799190614460565b60405180910390a15b505050565b600281565b600060976000838152602001908152602001600020600101549050919050565b610db4611a72565b73ffffffffffffffffffffffffffffffffffffffff168573ffffffffffffffffffffffffffffffffffffffff161480610dfa5750610df985610df4611a72565b6116ee565b5b610e39576040517f08c379a0000000000000000000000000000000000000000000000000000000008152600401610e30906144ed565b60405180910390fd5b610e468585858585611afa565b5050505050565b610e5682610d8c565b610e5f81611e1e565b610e698383611e32565b505050565b610e76611a72565b73ffffffffffffffffffffffffffffffffffffffff168173ffffffffffffffffffffffffffffffffffffffff1614610ee3576040517f08c379a0000000000000000000000000000000000000000000000000000000008152600401610eda9061457f565b60405180910390fd5b610eed8282611f13565b5050565b7f000000000000000000000000000000000000000000000000000000000000000073ffffffffffffffffffffffffffffffffffffffff163073ffffffffffffffffffffffffffffffffffffffff1603610f7f576040517f08c379a0000000000000000000000000000000000000000000000000000000008152600401610f7690614611565b60405180910390fd5b7f000000000000000000000000000000000000000000000000000000000000000073ffffffffffffffffffffffffffffffffffffffff16610fbe611ff5565b73ffffffffffffffffffffffffffffffffffffffff1614611014576040517f08c379a000000000000000000000000000000000000000000000000000000000815260040161100b906146a3565b60405180910390fd5b61101d8161204c565b61107681600067ffffffffffffffff81111561103c5761103b6138a0565b5b6040519080825280601f01601f19166020018201604052801561106e5781602001600182028036833780820191505090505b5060006120cf565b50565b606081518351146110bf576040517f08c379a00000000000000000000000000000000000000000000000000000000081526004016110b690614735565b60405180910390fd5b6000835167ffffffffffffffff8111156110dc576110db6138a0565b5b60405190808252806020026020018201604052801561110a5781602001602082028036833780820191505090505b50905060005b84518110156111875761115785828151811061112f5761112e614755565b5b602002602001015185838151811061114a57611149614755565b5b60200260200101516107d8565b82828151811061116a57611169614755565b5b60200260200101818152505080611180906147b3565b9050611110565b508091505092915050565b7f000000000000000000000000000000000000000000000000000000000000000073ffffffffffffffffffffffffffffffffffffffff163073ffffffffffffffffffffffffffffffffffffffff1603611220576040517f08c379a000000000000000000000000000000000000000000000000000000000815260040161121790614611565b60405180910390fd5b7f000000000000000000000000000000000000000000000000000000000000000073ffffffffffffffffffffffffffffffffffffffff1661125f611ff5565b73ffffffffffffffffffffffffffffffffffffffff16146112b5576040517f08c379a00000000000000000000000000000000000000000000000000000000081526004016112ac906146a3565b60405180910390fd5b6112be8261204c565b6112ca828260016120cf565b5050565b6000806112da83611667565b119050919050565b60007f000000000000000000000000000000000000000000000000000000000000000073ffffffffffffffffffffffffffffffffffffffff163073ffffffffffffffffffffffffffffffffffffffff1614611372576040517f08c379a00000000000000000000000000000000000000000000000000000000081526004016113699061486d565b60405180910390fd5b7f360894a13ba1a3210667c828492db98dca3e2076cc3735a920a3ca505d382bbc60001b905090565b60606040518060400160405280600581526020017f312e302e30000000000000000000000000000000000000000000000000000000815250905090565b600061012d60009054906101000a900460ff16905090565b600481565b600381565b600060405160200161140b90614337565b6040516020818303038152906040528051906020012061142a81611e1e565b61143261223d565b61143b84611a88565b61144483612287565b600061145085856107d8565b036114885761148360405160200161146790614398565b6040516020818303038152906040528051906020012085611e32565b6114c3565b6040517f08c379a00000000000000000000000000000000000000000000000000000000081526004016114ba906148d9565b60405180910390fd5b600191505092915050565b60006097600084815260200190815260200160002060000160008373ffffffffffffffffffffffffffffffffffffffff1673ffffffffffffffffffffffffffffffffffffffff16815260200190815260200160002060009054906101000a900460ff16905092915050565b60606040518060400160405280600381526020017f4944540000000000000000000000000000000000000000000000000000000000815250905090565b60405160200161158590614398565b604051602081830303815290604052805190602001206115a481611e1e565b6115b56115af611a72565b836113fa565b6115f4576040517f08c379a00000000000000000000000000000000000000000000000000000000081526004016115eb90614945565b60405180910390fd5b61016460008381526020019081526020016000206000815480929190611619906147b3565b9190505550611641611629611a72565b836001604051806020016040528060008152506122ce565b5050565b6000801b81565b61165e611657611a72565b838361247f565b5050565b600581565b60006101646000838152602001908152602001600020549050919050565b60405160200161169490614337565b604051602081830303815290604052805190602001206116b381611e1e565b6116bb61223d565b6116c4826125eb565b5050565b6116d182610d8c565b6116da81611e1e565b6116e48383611f13565b505050565b600181565b6000606660008473ffffffffffffffffffffffffffffffffffffffff1673ffffffffffffffffffffffffffffffffffffffff16815260200190815260200160002060008373ffffffffffffffffffffffffffffffffffffffff1673ffffffffffffffffffffffffffffffffffffffff16815260200190815260200160002060009054906101000a900460ff16905092915050565b61178a611a72565b73ffffffffffffffffffffffffffffffffffffffff168573ffffffffffffffffffffffffffffffffffffffff1614806117d057506117cf856117ca611a72565b6116ee565b5b61180f576040517f08c379a0000000000000000000000000000000000000000000000000000000008152600401611806906144ed565b60405180910390fd5b61181c85858585856125fe565b5050505050565b60007f7965db0b000000000000000000000000000000000000000000000000000000007bffffffffffffffffffffffffffffffffffffffffffffffffffffffff1916827bffffffffffffffffffffffffffffffffffffffffffffffffffffffff1916148061189657506118958261289c565b5b9050919050565b6000808273ffffffffffffffffffffffffffffffffffffffff163b119050919050565b600060019054906101000a900460ff1661190f576040517f08c379a0000000000000000000000000000000000000000000000000000000008152600401611906906149d7565b60405180910390fd5b6119188161297e565b50565b600060019054906101000a900460ff1661196a576040517f08c379a0000000000000000000000000000000000000000000000000000000008152600401611961906149d7565b60405180910390fd5b565b600060019054906101000a900460ff166119bb576040517f08c379a00000000000000000000000000000000000000000000000000000000081526004016119b2906149d7565b60405180910390fd5b565b600060019054906101000a900460ff16611a0c576040517f08c379a0000000000000000000000000000000000000000000000000000000008152600401611a03906149d7565b60405180910390fd5b611a146129d9565b565b6000611a2183610d8c565b90508160976000858152602001908152602001600020600101819055508181847fbd79b86ffe0ab8e8776151514217cd7cacd52c909f66475c3af44e129f0b00ff60405160405180910390a4505050565b600033905090565b611a848282611e32565b5050565b600073ffffffffffffffffffffffffffffffffffffffff168173ffffffffffffffffffffffffffffffffffffffff1603611af7576040517f08c379a0000000000000000000000000000000000000000000000000000000008152600401611aee90614a43565b60405180910390fd5b50565b8151835114611b3e576040517f08c379a0000000000000000000000000000000000000000000000000000000008152600401611b3590614ad5565b60405180910390fd5b600073ffffffffffffffffffffffffffffffffffffffff168473ffffffffffffffffffffffffffffffffffffffff1603611bad576040517f08c379a0000000000000000000000000000000000000000000000000000000008152600401611ba490614b67565b60405180910390fd5b6000611bb7611a72565b9050611bc7818787878787612a46565b60005b8451811015611d7b576000858281518110611be857611be7614755565b5b602002602001015190506000858381518110611c0757611c06614755565b5b6020026020010151905060006065600084815260200190815260200160002060008b73ffffffffffffffffffffffffffffffffffffffff1673ffffffffffffffffffffffffffffffffffffffff16815260200190815260200160002054905081811015611ca9576040517f08c379a0000000000000000000000000000000000000000000000000000000008152600401611ca090614bf9565b60405180910390fd5b8181036065600085815260200190815260200160002060008c73ffffffffffffffffffffffffffffffffffffffff1673ffffffffffffffffffffffffffffffffffffffff16815260200190815260200160002081905550816065600085815260200190815260200160002060008b73ffffffffffffffffffffffffffffffffffffffff1673ffffffffffffffffffffffffffffffffffffffff1681526020019081526020016000206000828254611d609190614c19565b9250508190555050505080611d74906147b3565b9050611bca565b508473ffffffffffffffffffffffffffffffffffffffff168673ffffffffffffffffffffffffffffffffffffffff168273ffffffffffffffffffffffffffffffffffffffff167f4a39dc06d4c0dbc64b70af90fd698a233a518aa5d07e595d983b8c0526c8f7fb8787604051611df2929190614c4d565b60405180910390a4611e08818787878787612bbc565b611e16818787878787612bc4565b505050505050565b611e2f81611e2a611a72565b612d9b565b50565b611e3c82826114ce565b611f0f5760016097600084815260200190815260200160002060000160008373ffffffffffffffffffffffffffffffffffffffff1673ffffffffffffffffffffffffffffffffffffffff16815260200190815260200160002060006101000a81548160ff021916908315150217905550611eb4611a72565b73ffffffffffffffffffffffffffffffffffffffff168173ffffffffffffffffffffffffffffffffffffffff16837f2f8788117e7eff1d82e926ec794901d17c78024a50270940304540a733656f0d60405160405180910390a45b5050565b611f1d82826114ce565b15611ff15760006097600084815260200190815260200160002060000160008373ffffffffffffffffffffffffffffffffffffffff1673ffffffffffffffffffffffffffffffffffffffff16815260200190815260200160002060006101000a81548160ff021916908315150217905550611f96611a72565b73ffffffffffffffffffffffffffffffffffffffff168173ffffffffffffffffffffffffffffffffffffffff16837ff6391f5c32d9c69d2a47ea670b442974b53935d1edc7fd64eb21e047a839171b60405160405180910390a45b5050565b60006120237f360894a13ba1a3210667c828492db98dca3e2076cc3735a920a3ca505d382bbc60001b612e20565b60000160009054906101000a900473ffffffffffffffffffffffffffffffffffffffff16905090565b60405160200161205b906143f9565b6040516020818303038152906040528051906020012061207a81611e1e565b61208382611a88565b61208c8261189d565b6120cb576040517f08c379a00000000000000000000000000000000000000000000000000000000081526004016120c290614cd0565b60405180910390fd5b5050565b6120fb7f4910fdfa16fed3260ed0e7147f7cc6da11a60208b5b9406d12a635614ffd914360001b612e2a565b60000160009054906101000a900460ff161561211f5761211a83612e34565b612238565b8273ffffffffffffffffffffffffffffffffffffffff166352d1902d6040518163ffffffff1660e01b8152600401602060405180830381865afa92505050801561218757506040513d601f19601f820116820180604052508101906121849190614d05565b60015b6121c6576040517f08c379a00000000000000000000000000000000000000000000000000000000081526004016121bd90614da4565b60405180910390fd5b7f360894a13ba1a3210667c828492db98dca3e2076cc3735a920a3ca505d382bbc60001b811461222b576040517f08c379a000000000000000000000000000000000000000000000000000000000815260040161222290614e36565b60405180910390fd5b50612237838383612eed565b5b505050565b6122456113d8565b15612285576040517f08c379a000000000000000000000000000000000000000000000000000000000815260040161227c90614ea2565b60405180910390fd5b565b60058111156122cb576040517f08c379a00000000000000000000000000000000000000000000000000000000081526004016122c290614f0e565b60405180910390fd5b50565b600073ffffffffffffffffffffffffffffffffffffffff168473ffffffffffffffffffffffffffffffffffffffff160361233d576040517f08c379a000000000000000000000000000000000000000000000000000000000815260040161233490614fa0565b60405180910390fd5b6000612347611a72565b9050600061235485612f19565b9050600061236185612f19565b905061237283600089858589612a46565b846065600088815260200190815260200160002060008973ffffffffffffffffffffffffffffffffffffffff1673ffffffffffffffffffffffffffffffffffffffff16815260200190815260200160002060008282546123d29190614c19565b925050819055508673ffffffffffffffffffffffffffffffffffffffff16600073ffffffffffffffffffffffffffffffffffffffff168473ffffffffffffffffffffffffffffffffffffffff167fc3d58168c5ae7397731d063d5bbf3d657854427343f4c083240f7aacaa2d0f628989604051612450929190614fc0565b60405180910390a461246783600089858589612bbc565b61247683600089898989612f93565b50505050505050565b8173ffffffffffffffffffffffffffffffffffffffff168373ffffffffffffffffffffffffffffffffffffffff16036124ed576040517f08c379a00000000000000000000000000000000000000000000000000000000081526004016124e49061505b565b60405180910390fd5b80606660008573ffffffffffffffffffffffffffffffffffffffff1673ffffffffffffffffffffffffffffffffffffffff16815260200190815260200160002060008473ffffffffffffffffffffffffffffffffffffffff1673ffffffffffffffffffffffffffffffffffffffff16815260200190815260200160002060006101000a81548160ff0219169083151502179055508173ffffffffffffffffffffffffffffffffffffffff168373ffffffffffffffffffffffffffffffffffffffff167f17307eab39ab6107e8899845ad3d59bd9653f200f220920489ca2b5937696c31836040516125de919061379c565b60405180910390a3505050565b80606790816125fa919061521d565b5050565b600073ffffffffffffffffffffffffffffffffffffffff168473ffffffffffffffffffffffffffffffffffffffff160361266d576040517f08c379a000000000000000000000000000000000000000000000000000000000815260040161266490614b67565b60405180910390fd5b6000612677611a72565b9050600061268485612f19565b9050600061269185612f19565b90506126a1838989858589612a46565b60006065600088815260200190815260200160002060008a73ffffffffffffffffffffffffffffffffffffffff1673ffffffffffffffffffffffffffffffffffffffff16815260200190815260200160002054905085811015612739576040517f08c379a000000000000000000000000000000000000000000000000000000000815260040161273090614bf9565b60405180910390fd5b8581036065600089815260200190815260200160002060008b73ffffffffffffffffffffffffffffffffffffffff1673ffffffffffffffffffffffffffffffffffffffff16815260200190815260200160002081905550856065600089815260200190815260200160002060008a73ffffffffffffffffffffffffffffffffffffffff1673ffffffffffffffffffffffffffffffffffffffff16815260200190815260200160002060008282546127f09190614c19565b925050819055508773ffffffffffffffffffffffffffffffffffffffff168973ffffffffffffffffffffffffffffffffffffffff168573ffffffffffffffffffffffffffffffffffffffff167fc3d58168c5ae7397731d063d5bbf3d657854427343f4c083240f7aacaa2d0f628a8a60405161286d929190614fc0565b60405180910390a4612883848a8a86868a612bbc565b612891848a8a8a8a8a612f93565b505050505050505050565b60007fd9b67a26000000000000000000000000000000000000000000000000000000007bffffffffffffffffffffffffffffffffffffffffffffffffffffffff1916827bffffffffffffffffffffffffffffffffffffffffffffffffffffffff1916148061296757507f0e89341c000000000000000000000000000000000000000000000000000000007bffffffffffffffffffffffffffffffffffffffffffffffffffffffff1916827bffffffffffffffffffffffffffffffffffffffffffffffffffffffff1916145b8061297757506129768261316a565b5b9050919050565b600060019054906101000a900460ff166129cd576040517f08c379a00000000000000000000000000000000000000000000000000000000081526004016129c4906149d7565b60405180910390fd5b6129d6816125eb565b50565b600060019054906101000a900460ff16612a28576040517f08c379a0000000000000000000000000000000000000000000000000000000008152600401612a1f906149d7565b60405180910390fd5b600061012d60006101000a81548160ff021916908315150217905550565b612a4e6113d8565b15612a8e576040517f08c379a0000000000000000000000000000000000000000000000000000000008152600401612a859061533b565b60405180910390fd5b600073ffffffffffffffffffffffffffffffffffffffff168573ffffffffffffffffffffffffffffffffffffffff16148015612af75750600073ffffffffffffffffffffffffffffffffffffffff168473ffffffffffffffffffffffffffffffffffffffff1614155b80612b675750600073ffffffffffffffffffffffffffffffffffffffff168573ffffffffffffffffffffffffffffffffffffffff1614158015612b665750600073ffffffffffffffffffffffffffffffffffffffff168473ffffffffffffffffffffffffffffffffffffffff16145b5b612ba6576040517f08c379a0000000000000000000000000000000000000000000000000000000008152600401612b9d906153a7565b60405180910390fd5b612bb48686868686866131d4565b505050505050565b505050505050565b612be38473ffffffffffffffffffffffffffffffffffffffff1661189d565b15612d93578373ffffffffffffffffffffffffffffffffffffffff1663bc197c8187878686866040518663ffffffff1660e01b8152600401612c2995949392919061542b565b6020604051808303816000875af1925050508015612c6557506040513d601f19601f82011682018060405250810190612c6291906154a8565b60015b612d0a57612c716154e2565b806308c379a003612ccd5750612c85615504565b80612c905750612ccf565b806040517f08c379a0000000000000000000000000000000000000000000000000000000008152600401612cc49190613847565b60405180910390fd5b505b6040517f08c379a0000000000000000000000000000000000000000000000000000000008152600401612d0190615606565b60405180910390fd5b63bc197c8160e01b7bffffffffffffffffffffffffffffffffffffffffffffffffffffffff1916817bffffffffffffffffffffffffffffffffffffffffffffffffffffffff191614612d91576040517f08c379a0000000000000000000000000000000000000000000000000000000008152600401612d8890615698565b60405180910390fd5b505b505050505050565b612da582826114ce565b612e1c57612db2816131dc565b612dc08360001c6020613209565b604051602001612dd1929190615781565b6040516020818303038152906040526040517f08c379a0000000000000000000000000000000000000000000000000000000008152600401612e139190613847565b60405180910390fd5b5050565b6000819050919050565b6000819050919050565b612e3d8161189d565b612e7c576040517f08c379a0000000000000000000000000000000000000000000000000000000008152600401612e739061582d565b60405180910390fd5b80612ea97f360894a13ba1a3210667c828492db98dca3e2076cc3735a920a3ca505d382bbc60001b612e20565b60000160006101000a81548173ffffffffffffffffffffffffffffffffffffffff021916908373ffffffffffffffffffffffffffffffffffffffff16021790555050565b612ef683613445565b600082511180612f035750805b15612f1457612f128383613494565b505b505050565b60606000600167ffffffffffffffff811115612f3857612f376138a0565b5b604051908082528060200260200182016040528015612f665781602001602082028036833780820191505090505b5090508281600081518110612f7e57612f7d614755565b5b60200260200101818152505080915050919050565b612fb28473ffffffffffffffffffffffffffffffffffffffff1661189d565b15613162578373ffffffffffffffffffffffffffffffffffffffff1663f23a6e6187878686866040518663ffffffff1660e01b8152600401612ff895949392919061584d565b6020604051808303816000875af192505050801561303457506040513d601f19601f8201168201806040525081019061303191906154a8565b60015b6130d9576130406154e2565b806308c379a00361309c5750613054615504565b8061305f575061309e565b806040517f08c379a00000000000000000000000000000000000000000000000000000000081526004016130939190613847565b60405180910390fd5b505b6040517f08c379a00000000000000000000000000000000000000000000000000000000081526004016130d090615606565b60405180910390fd5b63f23a6e6160e01b7bffffffffffffffffffffffffffffffffffffffffffffffffffffffff1916817bffffffffffffffffffffffffffffffffffffffffffffffffffffffff191614613160576040517f08c379a000000000000000000000000000000000000000000000000000000000815260040161315790615698565b60405180910390fd5b505b505050505050565b60007f01ffc9a7000000000000000000000000000000000000000000000000000000007bffffffffffffffffffffffffffffffffffffffffffffffffffffffff1916827bffffffffffffffffffffffffffffffffffffffffffffffffffffffff1916149050919050565b505050505050565b60606132028273ffffffffffffffffffffffffffffffffffffffff16601460ff16613209565b9050919050565b60606000600283600261321c91906158a7565b6132269190614c19565b67ffffffffffffffff81111561323f5761323e6138a0565b5b6040519080825280601f01601f1916602001820160405280156132715781602001600182028036833780820191505090505b5090507f3000000000000000000000000000000000000000000000000000000000000000816000815181106132a9576132a8614755565b5b60200101907effffffffffffffffffffffffffffffffffffffffffffffffffffffffffffff1916908160001a9053507f78000000000000000000000000000000000000000000000000000000000000008160018151811061330d5761330c614755565b5b60200101907effffffffffffffffffffffffffffffffffffffffffffffffffffffffffffff1916908160001a9053506000600184600261334d91906158a7565b6133579190614c19565b90505b60018111156133f7577f3031323334353637383961626364656600000000000000000000000000000000600f86166010811061339957613398614755565b5b1a60f81b8282815181106133b0576133af614755565b5b60200101907effffffffffffffffffffffffffffffffffffffffffffffffffffffffffffff1916908160001a905350600485901c9450806133f0906158e9565b905061335a565b506000841461343b576040517f08c379a00000000000000000000000000000000000000000000000000000000081526004016134329061595e565b60405180910390fd5b8091505092915050565b61344e81612e34565b8073ffffffffffffffffffffffffffffffffffffffff167fbc7cd75a20ee27fd9adebab32041f755214dbc6bffa90cc0225b39da2e5c2d3b60405160405180910390a250565b606061349f8361189d565b6134de576040517f08c379a00000000000000000000000000000000000000000000000000000000081526004016134d5906159f0565b60405180910390fd5b6000808473ffffffffffffffffffffffffffffffffffffffff16846040516135069190615a4c565b600060405180830381855af49150503d8060008114613541576040519150601f19603f3d011682016040523d82523d6000602084013e613546565b606091505b509150915061356e8282604051806060016040528060278152602001615a6460279139613578565b9250505092915050565b6060831561358857829050613593565b613592838361359a565b5b9392505050565b6000825111156135ad5781518083602001fd5b806040517f08c379a00000000000000000000000000000000000000000000000000000000081526004016135e19190613847565b60405180910390fd5b6000604051905090565b600080fd5b600080fd5b600073ffffffffffffffffffffffffffffffffffffffff82169050919050565b6000613629826135fe565b9050919050565b6136398161361e565b811461364457600080fd5b50565b60008135905061365681613630565b92915050565b6000819050919050565b61366f8161365c565b811461367a57600080fd5b50565b60008135905061368c81613666565b92915050565b600080604083850312156136a9576136a86135f4565b5b60006136b785828601613647565b92505060206136c88582860161367d565b9150509250929050565b6136db8161365c565b82525050565b60006020820190506136f660008301846136d2565b92915050565b60007fffffffff0000000000000000000000000000000000000000000000000000000082169050919050565b613731816136fc565b811461373c57600080fd5b50565b60008135905061374e81613728565b92915050565b60006020828403121561376a576137696135f4565b5b60006137788482850161373f565b91505092915050565b60008115159050919050565b61379681613781565b82525050565b60006020820190506137b1600083018461378d565b92915050565b600081519050919050565b600082825260208201905092915050565b60005b838110156137f15780820151818401526020810190506137d6565b60008484015250505050565b6000601f19601f8301169050919050565b6000613819826137b7565b61382381856137c2565b93506138338185602086016137d3565b61383c816137fd565b840191505092915050565b60006020820190508181036000830152613861818461380e565b905092915050565b60006020828403121561387f5761387e6135f4565b5b600061388d8482850161367d565b91505092915050565b600080fd5b600080fd5b7f4e487b7100000000000000000000000000000000000000000000000000000000600052604160045260246000fd5b6138d8826137fd565b810181811067ffffffffffffffff821117156138f7576138f66138a0565b5b80604052505050565b600061390a6135ea565b905061391682826138cf565b919050565b600067ffffffffffffffff821115613936576139356138a0565b5b61393f826137fd565b9050602081019050919050565b82818337600083830152505050565b600061396e6139698461391b565b613900565b90508281526020810184848401111561398a5761398961389b565b5b61399584828561394c565b509392505050565b600082601f8301126139b2576139b1613896565b5b81356139c284826020860161395b565b91505092915050565b600080604083850312156139e2576139e16135f4565b5b60006139f085828601613647565b925050602083013567ffffffffffffffff811115613a1157613a106135f9565b5b613a1d8582860161399d565b9150509250929050565b6000819050919050565b613a3a81613a27565b8114613a4557600080fd5b50565b600081359050613a5781613a31565b92915050565b600060208284031215613a7357613a726135f4565b5b6000613a8184828501613a48565b91505092915050565b613a9381613a27565b82525050565b6000602082019050613aae6000830184613a8a565b92915050565b600067ffffffffffffffff821115613acf57613ace6138a0565b5b602082029050602081019050919050565b600080fd5b6000613af8613af384613ab4565b613900565b90508083825260208201905060208402830185811115613b1b57613b1a613ae0565b5b835b81811015613b445780613b30888261367d565b845260208401935050602081019050613b1d565b5050509392505050565b600082601f830112613b6357613b62613896565b5b8135613b73848260208601613ae5565b91505092915050565b600067ffffffffffffffff821115613b9757613b966138a0565b5b613ba0826137fd565b9050602081019050919050565b6000613bc0613bbb84613b7c565b613900565b905082815260208101848484011115613bdc57613bdb61389b565b5b613be784828561394c565b509392505050565b600082601f830112613c0457613c03613896565b5b8135613c14848260208601613bad565b91505092915050565b600080600080600060a08688031215613c3957613c386135f4565b5b6000613c4788828901613647565b9550506020613c5888828901613647565b945050604086013567ffffffffffffffff811115613c7957613c786135f9565b5b613c8588828901613b4e565b935050606086013567ffffffffffffffff811115613ca657613ca56135f9565b5b613cb288828901613b4e565b925050608086013567ffffffffffffffff811115613cd357613cd26135f9565b5b613cdf88828901613bef565b9150509295509295909350565b60008060408385031215613d0357613d026135f4565b5b6000613d1185828601613a48565b9250506020613d2285828601613647565b9150509250929050565b600060208284031215613d4257613d416135f4565b5b6000613d5084828501613647565b91505092915050565b600067ffffffffffffffff821115613d7457613d736138a0565b5b602082029050602081019050919050565b6000613d98613d9384613d59565b613900565b90508083825260208201905060208402830185811115613dbb57613dba613ae0565b5b835b81811015613de45780613dd08882613647565b845260208401935050602081019050613dbd565b5050509392505050565b600082601f830112613e0357613e02613896565b5b8135613e13848260208601613d85565b91505092915050565b60008060408385031215613e3357613e326135f4565b5b600083013567ffffffffffffffff811115613e5157613e506135f9565b5b613e5d85828601613dee565b925050602083013567ffffffffffffffff811115613e7e57613e7d6135f9565b5b613e8a85828601613b4e565b9150509250929050565b600081519050919050565b600082825260208201905092915050565b6000819050602082019050919050565b613ec98161365c565b82525050565b6000613edb8383613ec0565b60208301905092915050565b6000602082019050919050565b6000613eff82613e94565b613f098185613e9f565b9350613f1483613eb0565b8060005b83811015613f45578151613f2c8882613ecf565b9750613f3783613ee7565b925050600181019050613f18565b5085935050505092915050565b60006020820190508181036000830152613f6c8184613ef4565b905092915050565b60008060408385031215613f8b57613f8a6135f4565b5b6000613f9985828601613647565b925050602083013567ffffffffffffffff811115613fba57613fb96135f9565b5b613fc685828601613bef565b9150509250929050565b613fd981613781565b8114613fe457600080fd5b50565b600081359050613ff681613fd0565b92915050565b60008060408385031215614013576140126135f4565b5b600061402185828601613647565b925050602061403285828601613fe7565b9150509250929050565b600060208284031215614052576140516135f4565b5b600082013567ffffffffffffffff8111156140705761406f6135f9565b5b61407c8482850161399d565b91505092915050565b6000806040838503121561409c5761409b6135f4565b5b60006140aa85828601613647565b92505060206140bb85828601613647565b9150509250929050565b600080600080600060a086880312156140e1576140e06135f4565b5b60006140ef88828901613647565b955050602061410088828901613647565b94505060406141118882890161367d565b93505060606141228882890161367d565b925050608086013567ffffffffffffffff811115614143576141426135f9565b5b61414f88828901613bef565b9150509295509295909350565b7f455243313135353a2061646472657373207a65726f206973206e6f742061207660008201527f616c6964206f776e657200000000000000000000000000000000000000000000602082015250565b60006141b8602a836137c2565b91506141c38261415c565b604082019050919050565b600060208201905081810360008301526141e7816141ab565b9050919050565b7f4e487b7100000000000000000000000000000000000000000000000000000000600052602260045260246000fd5b6000600282049050600182168061423557607f821691505b602082108103614248576142476141ee565b5b50919050565b7f496e697469616c697a61626c653a20636f6e747261637420697320616c72656160008201527f647920696e697469616c697a6564000000000000000000000000000000000000602082015250565b60006142aa602e836137c2565b91506142b58261424e565b604082019050919050565b600060208201905081810360008301526142d98161429d565b9050919050565b600081905092915050565b7f41444d494e5f524f4c4500000000000000000000000000000000000000000000600082015250565b6000614321600a836142e0565b915061432c826142eb565b600a82019050919050565b600061434282614314565b9150819050919050565b7f4d494e5445525f524f4c45000000000000000000000000000000000000000000600082015250565b6000614382600b836142e0565b915061438d8261434c565b600b82019050919050565b60006143a382614375565b9150819050919050565b7f55504752414445525f524f4c4500000000000000000000000000000000000000600082015250565b60006143e3600d836142e0565b91506143ee826143ad565b600d82019050919050565b6000614404826143d6565b9150819050919050565b6000819050919050565b600060ff82169050919050565b6000819050919050565b600061444a6144456144408461440e565b614425565b614418565b9050919050565b61445a8161442f565b82525050565b60006020820190506144756000830184614451565b92915050565b7f455243313135353a2063616c6c6572206973206e6f7420746f6b656e206f776e60008201527f6572206f7220617070726f766564000000000000000000000000000000000000602082015250565b60006144d7602e836137c2565b91506144e28261447b565b604082019050919050565b60006020820190508181036000830152614506816144ca565b9050919050565b7f416363657373436f6e74726f6c3a2063616e206f6e6c792072656e6f756e636560008201527f20726f6c657320666f722073656c660000000000000000000000000000000000602082015250565b6000614569602f836137c2565b91506145748261450d565b604082019050919050565b600060208201905081810360008301526145988161455c565b9050919050565b7f46756e6374696f6e206d7573742062652063616c6c6564207468726f7567682060008201527f64656c656761746563616c6c0000000000000000000000000000000000000000602082015250565b60006145fb602c836137c2565b91506146068261459f565b604082019050919050565b6000602082019050818103600083015261462a816145ee565b9050919050565b7f46756e6374696f6e206d7573742062652063616c6c6564207468726f7567682060008201527f6163746976652070726f78790000000000000000000000000000000000000000602082015250565b600061468d602c836137c2565b915061469882614631565b604082019050919050565b600060208201905081810360008301526146bc81614680565b9050919050565b7f455243313135353a206163636f756e747320616e6420696473206c656e67746860008201527f206d69736d617463680000000000000000000000000000000000000000000000602082015250565b600061471f6029836137c2565b915061472a826146c3565b604082019050919050565b6000602082019050818103600083015261474e81614712565b9050919050565b7f4e487b7100000000000000000000000000000000000000000000000000000000600052603260045260246000fd5b7f4e487b7100000000000000000000000000000000000000000000000000000000600052601160045260246000fd5b60006147be8261365c565b91507fffffffffffffffffffffffffffffffffffffffffffffffffffffffffffffffff82036147f0576147ef614784565b5b600182019050919050565b7f555550535570677261646561626c653a206d757374206e6f742062652063616c60008201527f6c6564207468726f7567682064656c656761746563616c6c0000000000000000602082015250565b60006148576038836137c2565b9150614862826147fb565b604082019050919050565b600060208201905081810360008301526148868161484a565b9050919050565b7f746f6b656e2065697468657220736574206f72206d696e746564000000000000600082015250565b60006148c3601a836137c2565b91506148ce8261488d565b602082019050919050565b600060208201905081810360008301526148f2816148b6565b9050919050565b7f756e617574686f72697a656420746f6b656e2069640000000000000000000000600082015250565b600061492f6015836137c2565b915061493a826148f9565b602082019050919050565b6000602082019050818103600083015261495e81614922565b9050919050565b7f496e697469616c697a61626c653a20636f6e7472616374206973206e6f74206960008201527f6e697469616c697a696e67000000000000000000000000000000000000000000602082015250565b60006149c1602b836137c2565b91506149cc82614965565b604082019050919050565b600060208201905081810360008301526149f0816149b4565b9050919050565b7f61646472657373207a65726f20756e617574686f72697a656400000000000000600082015250565b6000614a2d6019836137c2565b9150614a38826149f7565b602082019050919050565b60006020820190508181036000830152614a5c81614a20565b9050919050565b7f455243313135353a2069647320616e6420616d6f756e7473206c656e6774682060008201527f6d69736d61746368000000000000000000000000000000000000000000000000602082015250565b6000614abf6028836137c2565b9150614aca82614a63565b604082019050919050565b60006020820190508181036000830152614aee81614ab2565b9050919050565b7f455243313135353a207472616e7366657220746f20746865207a65726f20616460008201527f6472657373000000000000000000000000000000000000000000000000000000602082015250565b6000614b516025836137c2565b9150614b5c82614af5565b604082019050919050565b60006020820190508181036000830152614b8081614b44565b9050919050565b7f455243313135353a20696e73756666696369656e742062616c616e636520666f60008201527f72207472616e7366657200000000000000000000000000000000000000000000602082015250565b6000614be3602a836137c2565b9150614bee82614b87565b604082019050919050565b60006020820190508181036000830152614c1281614bd6565b9050919050565b6000614c248261365c565b9150614c2f8361365c565b9250828201905080821115614c4757614c46614784565b5b92915050565b60006040820190508181036000830152614c678185613ef4565b90508181036020830152614c7b8184613ef4565b90509392505050565b7f6e657720696d706c656d656e746174696f6e206e6f7420636f6e747261637400600082015250565b6000614cba601f836137c2565b9150614cc582614c84565b602082019050919050565b60006020820190508181036000830152614ce981614cad565b9050919050565b600081519050614cff81613a31565b92915050565b600060208284031215614d1b57614d1a6135f4565b5b6000614d2984828501614cf0565b91505092915050565b7f45524331393637557067726164653a206e657720696d706c656d656e7461746960008201527f6f6e206973206e6f742055555053000000000000000000000000000000000000602082015250565b6000614d8e602e836137c2565b9150614d9982614d32565b604082019050919050565b60006020820190508181036000830152614dbd81614d81565b9050919050565b7f45524331393637557067726164653a20756e737570706f727465642070726f7860008201527f6961626c65555549440000000000000000000000000000000000000000000000602082015250565b6000614e206029836137c2565b9150614e2b82614dc4565b604082019050919050565b60006020820190508181036000830152614e4f81614e13565b9050919050565b7f5061757361626c653a2070617573656400000000000000000000000000000000600082015250565b6000614e8c6010836137c2565b9150614e9782614e56565b602082019050919050565b60006020820190508181036000830152614ebb81614e7f565b9050919050565b7f756e617661696c61626c65206964207965740000000000000000000000000000600082015250565b6000614ef86012836137c2565b9150614f0382614ec2565b602082019050919050565b60006020820190508181036000830152614f2781614eeb565b9050919050565b7f455243313135353a206d696e7420746f20746865207a65726f2061646472657360008201527f7300000000000000000000000000000000000000000000000000000000000000602082015250565b6000614f8a6021836137c2565b9150614f9582614f2e565b604082019050919050565b60006020820190508181036000830152614fb981614f7d565b9050919050565b6000604082019050614fd560008301856136d2565b614fe260208301846136d2565b9392505050565b7f455243313135353a2073657474696e6720617070726f76616c2073746174757360008201527f20666f722073656c660000000000000000000000000000000000000000000000602082015250565b60006150456029836137c2565b915061505082614fe9565b604082019050919050565b6000602082019050818103600083015261507481615038565b9050919050565b60008190508160005260206000209050919050565b60006020601f8301049050919050565b600082821b905092915050565b6000600883026150dd7fffffffffffffffffffffffffffffffffffffffffffffffffffffffffffffffff826150a0565b6150e786836150a0565b95508019841693508086168417925050509392505050565b600061511a6151156151108461365c565b614425565b61365c565b9050919050565b6000819050919050565b615134836150ff565b61514861514082615121565b8484546150ad565b825550505050565b600090565b61515d615150565b61516881848461512b565b505050565b5b8181101561518c57615181600082615155565b60018101905061516e565b5050565b601f8211156151d1576151a28161507b565b6151ab84615090565b810160208510156151ba578190505b6151ce6151c685615090565b83018261516d565b50505b505050565b600082821c905092915050565b60006151f4600019846008026151d6565b1980831691505092915050565b600061520d83836151e3565b9150826002028217905092915050565b615226826137b7565b67ffffffffffffffff81111561523f5761523e6138a0565b5b615249825461421d565b615254828285615190565b600060209050601f8311600181146152875760008415615275578287015190505b61527f8582615201565b8655506152e7565b601f1984166152958661507b565b60005b828110156152bd57848901518255600182019150602085019450602081019050615298565b868310156152da57848901516152d6601f8916826151e3565b8355505b6001600288020188555050505b505050505050565b7f636f6e7472616374206973207061757365640000000000000000000000000000600082015250565b60006153256012836137c2565b9150615330826152ef565b602082019050919050565b6000602082019050818103600083015261535481615318565b9050919050565b7f7472616e73666572206973206e6f7420616c6c6f776564000000000000000000600082015250565b60006153916017836137c2565b915061539c8261535b565b602082019050919050565b600060208201905081810360008301526153c081615384565b9050919050565b6153d08161361e565b82525050565b600081519050919050565b600082825260208201905092915050565b60006153fd826153d6565b61540781856153e1565b93506154178185602086016137d3565b615420816137fd565b840191505092915050565b600060a08201905061544060008301886153c7565b61544d60208301876153c7565b818103604083015261545f8186613ef4565b905081810360608301526154738185613ef4565b9050818103608083015261548781846153f2565b90509695505050505050565b6000815190506154a281613728565b92915050565b6000602082840312156154be576154bd6135f4565b5b60006154cc84828501615493565b91505092915050565b60008160e01c9050919050565b600060033d11156155015760046000803e6154fe6000516154d5565b90505b90565b600060443d10615591576155166135ea565b60043d036004823e80513d602482011167ffffffffffffffff8211171561553e575050615591565b808201805167ffffffffffffffff81111561555c5750505050615591565b80602083010160043d038501811115615579575050505050615591565b615588826020018501866138cf565b82955050505050505b90565b7f455243313135353a207472616e7366657220746f206e6f6e2d4552433131353560008201527f526563656976657220696d706c656d656e746572000000000000000000000000602082015250565b60006155f06034836137c2565b91506155fb82615594565b604082019050919050565b6000602082019050818103600083015261561f816155e3565b9050919050565b7f455243313135353a204552433131353552656365697665722072656a6563746560008201527f6420746f6b656e73000000000000000000000000000000000000000000000000602082015250565b60006156826028836137c2565b915061568d82615626565b604082019050919050565b600060208201905081810360008301526156b181615675565b9050919050565b7f416363657373436f6e74726f6c3a206163636f756e7420000000000000000000600082015250565b60006156ee6017836142e0565b91506156f9826156b8565b601782019050919050565b600061570f826137b7565b61571981856142e0565b93506157298185602086016137d3565b80840191505092915050565b7f206973206d697373696e6720726f6c6520000000000000000000000000000000600082015250565b600061576b6011836142e0565b915061577682615735565b601182019050919050565b600061578c826156e1565b91506157988285615704565b91506157a38261575e565b91506157af8284615704565b91508190509392505050565b7f455243313936373a206e657720696d706c656d656e746174696f6e206973206e60008201527f6f74206120636f6e747261637400000000000000000000000000000000000000602082015250565b6000615817602d836137c2565b9150615822826157bb565b604082019050919050565b600060208201905081810360008301526158468161580a565b9050919050565b600060a08201905061586260008301886153c7565b61586f60208301876153c7565b61587c60408301866136d2565b61588960608301856136d2565b818103608083015261589b81846153f2565b90509695505050505050565b60006158b28261365c565b91506158bd8361365c565b92508282026158cb8161365c565b915082820484148315176158e2576158e1614784565b5b5092915050565b60006158f48261365c565b91506000820361590757615906614784565b5b600182039050919050565b7f537472696e67733a20686578206c656e67746820696e73756666696369656e74600082015250565b60006159486020836137c2565b915061595382615912565b602082019050919050565b600060208201905081810360008301526159778161593b565b9050919050565b7f416464726573733a2064656c65676174652063616c6c20746f206e6f6e2d636f60008201527f6e74726163740000000000000000000000000000000000000000000000000000602082015250565b60006159da6026836137c2565b91506159e58261597e565b604082019050919050565b60006020820190508181036000830152615a09816159cd565b9050919050565b600081905092915050565b6000615a26826153d6565b615a308185615a10565b9350615a408185602086016137d3565b80840191505092915050565b6000615a588284615a1b565b91508190509291505056fe416464726573733a206c6f772d6c6576656c2064656c65676174652063616c6c206661696c6564a26469706673582212206ade61f975d23147be284521cddfd9e444b98b6e4443814188451046a2d1b86464736f6c63430008110033",
  "devdoc": {
    "kind": "dev",
    "methods": {
      "balanceOf(address,uint256)": {
        "details": "See {IERC1155-balanceOf}. Requirements: - `account` cannot be the zero address."
      },
      "balanceOfBatch(address[],uint256[])": {
        "details": "See {IERC1155-balanceOfBatch}. Requirements: - `accounts` and `ids` must have the same length."
      },
      "getRoleAdmin(bytes32)": {
        "details": "Returns the admin role that controls `role`. See {grantRole} and {revokeRole}. To change a role's admin, use {_setRoleAdmin}."
      },
      "grantRole(bytes32,address)": {
        "details": "Grants `role` to `account`. If `account` had not been already granted `role`, emits a {RoleGranted} event. Requirements: - the caller must have ``role``'s admin role. May emit a {RoleGranted} event."
      },
      "hasRole(bytes32,address)": {
        "details": "Returns `true` if `account` has been granted `role`."
      },
      "isApprovedForAll(address,address)": {
        "details": "See {IERC1155-isApprovedForAll}."
      },
      "paused()": {
        "details": "Returns true if the contract is paused, and false otherwise."
      },
      "proxiableUUID()": {
        "details": "Implementation of the ERC1822 {proxiableUUID} function. This returns the storage slot used by the implementation. It is used to validate the implementation's compatibility when performing an upgrade. IMPORTANT: A proxy pointing at a proxiable contract should not be considered proxiable itself, because this risks bricking a proxy that upgrades to it, by delegating to itself until out of gas. Thus it is critical that this function revert if invoked through a proxy. This is guaranteed by the `notDelegated` modifier."
      },
      "renounceRole(bytes32,address)": {
        "details": "Revokes `role` from the calling account. Roles are often managed via {grantRole} and {revokeRole}: this function's purpose is to provide a mechanism for accounts to lose their privileges if they are compromised (such as when a trusted device is misplaced). If the calling account had been revoked `role`, emits a {RoleRevoked} event. Requirements: - the caller must be `account`. May emit a {RoleRevoked} event."
      },
      "revokeRole(bytes32,address)": {
        "details": "Revokes `role` from `account`. If `account` had been granted `role`, emits a {RoleRevoked} event. Requirements: - the caller must have ``role``'s admin role. May emit a {RoleRevoked} event."
      },
      "safeBatchTransferFrom(address,address,uint256[],uint256[],bytes)": {
        "details": "See {IERC1155-safeBatchTransferFrom}."
      },
      "safeTransferFrom(address,address,uint256,uint256,bytes)": {
        "details": "See {IERC1155-safeTransferFrom}."
      },
      "setApprovalForAll(address,bool)": {
        "details": "See {IERC1155-setApprovalForAll}."
      },
      "upgradeTo(address)": {
        "details": "Upgrade the implementation of the proxy to `newImplementation`. Calls {_authorizeUpgrade}. Emits an {Upgraded} event."
      },
      "upgradeToAndCall(address,bytes)": {
        "details": "Upgrade the implementation of the proxy to `newImplementation`, and subsequently execute the function call encoded in `data`. Calls {_authorizeUpgrade}. Emits an {Upgraded} event."
      },
      "uri(uint256)": {
        "details": "See {IERC1155MetadataURI-uri}. This implementation returns the same URI for *all* token types. It relies on the token type ID substitution mechanism https://eips.ethereum.org/EIPS/eip-1155#metadata[defined in the EIP]. Clients calling this function must replace the `\\{id\\}` substring with the actual token type ID."
      }
    },
    "version": 1
  },
  "userdoc": {
    "kind": "user",
    "methods": {},
    "version": 1
  },
  "storageLayout": {
    "storage": [
      {
        "astId": 804,
        "contract": "contracts/IDToken.sol:IDToken",
        "label": "_initialized",
        "offset": 0,
        "slot": "0",
        "type": "t_uint8"
      },
      {
        "astId": 807,
        "contract": "contracts/IDToken.sol:IDToken",
        "label": "_initializing",
        "offset": 1,
        "slot": "0",
        "type": "t_bool"
      },
      {
        "astId": 2977,
        "contract": "contracts/IDToken.sol:IDToken",
        "label": "__gap",
        "offset": 0,
        "slot": "1",
        "type": "t_array(t_uint256)50_storage"
      },
      {
        "astId": 3256,
        "contract": "contracts/IDToken.sol:IDToken",
        "label": "__gap",
        "offset": 0,
        "slot": "51",
        "type": "t_array(t_uint256)50_storage"
      },
      {
        "astId": 1258,
        "contract": "contracts/IDToken.sol:IDToken",
        "label": "_balances",
        "offset": 0,
        "slot": "101",
        "type": "t_mapping(t_uint256,t_mapping(t_address,t_uint256))"
      },
      {
        "astId": 1264,
        "contract": "contracts/IDToken.sol:IDToken",
        "label": "_operatorApprovals",
        "offset": 0,
        "slot": "102",
        "type": "t_mapping(t_address,t_mapping(t_address,t_bool))"
      },
      {
        "astId": 1266,
        "contract": "contracts/IDToken.sol:IDToken",
        "label": "_uri",
        "offset": 0,
        "slot": "103",
        "type": "t_string_storage"
      },
      {
        "astId": 2473,
        "contract": "contracts/IDToken.sol:IDToken",
        "label": "__gap",
        "offset": 0,
        "slot": "104",
        "type": "t_array(t_uint256)47_storage"
      },
      {
        "astId": 39,
        "contract": "contracts/IDToken.sol:IDToken",
        "label": "_roles",
        "offset": 0,
        "slot": "151",
        "type": "t_mapping(t_bytes32,t_struct(RoleData)34_storage)"
      },
      {
        "astId": 334,
        "contract": "contracts/IDToken.sol:IDToken",
        "label": "__gap",
        "offset": 0,
        "slot": "152",
        "type": "t_array(t_uint256)49_storage"
      },
      {
        "astId": 786,
        "contract": "contracts/IDToken.sol:IDToken",
        "label": "__gap",
        "offset": 0,
        "slot": "201",
        "type": "t_array(t_uint256)50_storage"
      },
      {
        "astId": 1101,
        "contract": "contracts/IDToken.sol:IDToken",
        "label": "__gap",
        "offset": 0,
        "slot": "251",
        "type": "t_array(t_uint256)50_storage"
      },
      {
        "astId": 1123,
        "contract": "contracts/IDToken.sol:IDToken",
        "label": "_paused",
        "offset": 0,
        "slot": "301",
        "type": "t_bool"
      },
      {
        "astId": 1228,
        "contract": "contracts/IDToken.sol:IDToken",
        "label": "__gap",
        "offset": 0,
        "slot": "302",
        "type": "t_array(t_uint256)49_storage"
      },
      {
        "astId": 4159,
        "contract": "contracts/IDToken.sol:IDToken",
        "label": "availIds",
        "offset": 0,
        "slot": "351",
        "type": "t_array(t_uint256)5_storage"
      },
      {
        "astId": 4163,
        "contract": "contracts/IDToken.sol:IDToken",
        "label": "supply",
        "offset": 0,
        "slot": "356",
        "type": "t_mapping(t_uint256,t_uint256)"
      },
      {
        "astId": 4167,
        "contract": "contracts/IDToken.sol:IDToken",
        "label": "nonces",
        "offset": 0,
        "slot": "357",
        "type": "t_mapping(t_address,t_uint256)"
      }
    ],
    "types": {
      "t_address": {
        "encoding": "inplace",
        "label": "address",
        "numberOfBytes": "20"
      },
      "t_array(t_uint256)47_storage": {
        "base": "t_uint256",
        "encoding": "inplace",
        "label": "uint256[47]",
        "numberOfBytes": "1504"
      },
      "t_array(t_uint256)49_storage": {
        "base": "t_uint256",
        "encoding": "inplace",
        "label": "uint256[49]",
        "numberOfBytes": "1568"
      },
      "t_array(t_uint256)50_storage": {
        "base": "t_uint256",
        "encoding": "inplace",
        "label": "uint256[50]",
        "numberOfBytes": "1600"
      },
      "t_array(t_uint256)5_storage": {
        "base": "t_uint256",
        "encoding": "inplace",
        "label": "uint256[5]",
        "numberOfBytes": "160"
      },
      "t_bool": {
        "encoding": "inplace",
        "label": "bool",
        "numberOfBytes": "1"
      },
      "t_bytes32": {
        "encoding": "inplace",
        "label": "bytes32",
        "numberOfBytes": "32"
      },
      "t_mapping(t_address,t_bool)": {
        "encoding": "mapping",
        "key": "t_address",
        "label": "mapping(address => bool)",
        "numberOfBytes": "32",
        "value": "t_bool"
      },
      "t_mapping(t_address,t_mapping(t_address,t_bool))": {
        "encoding": "mapping",
        "key": "t_address",
        "label": "mapping(address => mapping(address => bool))",
        "numberOfBytes": "32",
        "value": "t_mapping(t_address,t_bool)"
      },
      "t_mapping(t_address,t_uint256)": {
        "encoding": "mapping",
        "key": "t_address",
        "label": "mapping(address => uint256)",
        "numberOfBytes": "32",
        "value": "t_uint256"
      },
      "t_mapping(t_bytes32,t_struct(RoleData)34_storage)": {
        "encoding": "mapping",
        "key": "t_bytes32",
        "label": "mapping(bytes32 => struct AccessControlUpgradeable.RoleData)",
        "numberOfBytes": "32",
        "value": "t_struct(RoleData)34_storage"
      },
      "t_mapping(t_uint256,t_mapping(t_address,t_uint256))": {
        "encoding": "mapping",
        "key": "t_uint256",
        "label": "mapping(uint256 => mapping(address => uint256))",
        "numberOfBytes": "32",
        "value": "t_mapping(t_address,t_uint256)"
      },
      "t_mapping(t_uint256,t_uint256)": {
        "encoding": "mapping",
        "key": "t_uint256",
        "label": "mapping(uint256 => uint256)",
        "numberOfBytes": "32",
        "value": "t_uint256"
      },
      "t_string_storage": {
        "encoding": "bytes",
        "label": "string",
        "numberOfBytes": "32"
      },
      "t_struct(RoleData)34_storage": {
        "encoding": "inplace",
        "label": "struct AccessControlUpgradeable.RoleData",
        "members": [
          {
            "astId": 31,
            "contract": "contracts/IDToken.sol:IDToken",
            "label": "members",
            "offset": 0,
            "slot": "0",
            "type": "t_mapping(t_address,t_bool)"
          },
          {
            "astId": 33,
            "contract": "contracts/IDToken.sol:IDToken",
            "label": "adminRole",
            "offset": 0,
            "slot": "1",
            "type": "t_bytes32"
          }
        ],
        "numberOfBytes": "64"
      },
      "t_uint256": {
        "encoding": "inplace",
        "label": "uint256",
        "numberOfBytes": "32"
      },
      "t_uint8": {
        "encoding": "inplace",
        "label": "uint8",
        "numberOfBytes": "1"
      }
    }
  }
}