{
  "address": "0xA3BA2E2bfE4E37E93f7F044D5d2a80272A52D6B7",
  "abi": [
    {
      "anonymous": false,
      "inputs": [
        {
          "indexed": false,
          "internalType": "address",
          "name": "previousAdmin",
          "type": "address"
        },
        {
          "indexed": false,
          "internalType": "address",
          "name": "newAdmin",
          "type": "address"
        }
      ],
      "name": "AdminChanged",
      "type": "event"
    },
    {
      "anonymous": false,
      "inputs": [
        {
          "indexed": true,
          "internalType": "address",
          "name": "account",
          "type": "address"
        },
        {
          "indexed": true,
          "internalType": "address",
          "name": "operator",
          "type": "address"
        },
        {
          "indexed": false,
          "internalType": "bool",
          "name": "approved",
          "type": "bool"
        }
      ],
      "name": "ApprovalForAll",
      "type": "event"
    },
    {
      "anonymous": false,
      "inputs": [
        {
          "indexed": true,
          "internalType": "address",
          "name": "beacon",
          "type": "address"
        }
      ],
      "name": "BeaconUpgraded",
      "type": "event"
    },
    {
      "anonymous": false,
      "inputs": [
        {
          "indexed": false,
          "internalType": "uint8",
          "name": "version",
          "type": "uint8"
        }
      ],
      "name": "Initialized",
      "type": "event"
    },
    {
      "anonymous": false,
      "inputs": [
        {
          "indexed": true,
          "internalType": "address",
          "name": "minter",
          "type": "address"
        },
        {
          "indexed": false,
          "internalType": "uint256",
          "name": "id",
          "type": "uint256"
        }
      ],
      "name": "MinterSet",
      "type": "event"
    },
    {
      "anonymous": false,
      "inputs": [
        {
          "indexed": false,
          "internalType": "address",
          "name": "account",
          "type": "address"
        }
      ],
      "name": "Paused",
      "type": "event"
    },
    {
      "anonymous": false,
      "inputs": [
        {
          "indexed": true,
          "internalType": "bytes32",
          "name": "role",
          "type": "bytes32"
        },
        {
          "indexed": true,
          "internalType": "bytes32",
          "name": "previousAdminRole",
          "type": "bytes32"
        },
        {
          "indexed": true,
          "internalType": "bytes32",
          "name": "newAdminRole",
          "type": "bytes32"
        }
      ],
      "name": "RoleAdminChanged",
      "type": "event"
    },
    {
      "anonymous": false,
      "inputs": [
        {
          "indexed": true,
          "internalType": "bytes32",
          "name": "role",
          "type": "bytes32"
        },
        {
          "indexed": true,
          "internalType": "address",
          "name": "account",
          "type": "address"
        },
        {
          "indexed": true,
          "internalType": "address",
          "name": "sender",
          "type": "address"
        }
      ],
      "name": "RoleGranted",
      "type": "event"
    },
    {
      "anonymous": false,
      "inputs": [
        {
          "indexed": true,
          "internalType": "bytes32",
          "name": "role",
          "type": "bytes32"
        },
        {
          "indexed": true,
          "internalType": "address",
          "name": "account",
          "type": "address"
        },
        {
          "indexed": true,
          "internalType": "address",
          "name": "sender",
          "type": "address"
        }
      ],
      "name": "RoleRevoked",
      "type": "event"
    },
    {
      "anonymous": false,
      "inputs": [
        {
          "indexed": true,
          "internalType": "address",
          "name": "operator",
          "type": "address"
        },
        {
          "indexed": true,
          "internalType": "address",
          "name": "from",
          "type": "address"
        },
        {
          "indexed": true,
          "internalType": "address",
          "name": "to",
          "type": "address"
        },
        {
          "indexed": false,
          "internalType": "uint256[]",
          "name": "ids",
          "type": "uint256[]"
        },
        {
          "indexed": false,
          "internalType": "uint256[]",
          "name": "values",
          "type": "uint256[]"
        }
      ],
      "name": "TransferBatch",
      "type": "event"
    },
    {
      "anonymous": false,
      "inputs": [
        {
          "indexed": true,
          "internalType": "address",
          "name": "operator",
          "type": "address"
        },
        {
          "indexed": true,
          "internalType": "address",
          "name": "from",
          "type": "address"
        },
        {
          "indexed": true,
          "internalType": "address",
          "name": "to",
          "type": "address"
        },
        {
          "indexed": false,
          "internalType": "uint256",
          "name": "id",
          "type": "uint256"
        },
        {
          "indexed": false,
          "internalType": "uint256",
          "name": "value",
          "type": "uint256"
        }
      ],
      "name": "TransferSingle",
      "type": "event"
    },
    {
      "anonymous": false,
      "inputs": [
        {
          "indexed": false,
          "internalType": "string",
          "name": "value",
          "type": "string"
        },
        {
          "indexed": true,
          "internalType": "uint256",
          "name": "id",
          "type": "uint256"
        }
      ],
      "name": "URI",
      "type": "event"
    },
    {
      "anonymous": false,
      "inputs": [
        {
          "indexed": false,
          "internalType": "address",
          "name": "account",
          "type": "address"
        }
      ],
      "name": "Unpaused",
      "type": "event"
    },
    {
      "anonymous": false,
      "inputs": [
        {
          "indexed": true,
          "internalType": "address",
          "name": "implementation",
          "type": "address"
        }
      ],
      "name": "Upgraded",
      "type": "event"
    },
    {
      "inputs": [],
      "name": "BUSINESS",
      "outputs": [
        {
          "internalType": "uint256",
          "name": "",
          "type": "uint256"
        }
      ],
      "stateMutability": "view",
      "type": "function"
    },
    {
      "inputs": [],
      "name": "DEFAULT_ADMIN_ROLE",
      "outputs": [
        {
          "internalType": "bytes32",
          "name": "",
          "type": "bytes32"
        }
      ],
      "stateMutability": "view",
      "type": "function"
    },
    {
      "inputs": [],
      "name": "INT_INVESTOR",
      "outputs": [
        {
          "internalType": "uint256",
          "name": "",
          "type": "uint256"
        }
      ],
      "stateMutability": "view",
      "type": "function"
    },
    {
      "inputs": [],
      "name": "INT_PERSONA",
      "outputs": [
        {
          "internalType": "uint256",
          "name": "",
          "type": "uint256"
        }
      ],
      "stateMutability": "view",
      "type": "function"
    },
    {
      "inputs": [],
      "name": "US_INVERSTOR",
      "outputs": [
        {
          "internalType": "uint256",
          "name": "",
          "type": "uint256"
        }
      ],
      "stateMutability": "view",
      "type": "function"
    },
    {
      "inputs": [],
      "name": "US_PERSONA",
      "outputs": [
        {
          "internalType": "uint256",
          "name": "",
          "type": "uint256"
        }
      ],
      "stateMutability": "view",
      "type": "function"
    },
    {
      "inputs": [
        {
          "internalType": "address",
          "name": "upgrader",
          "type": "address"
        },
        {
          "internalType": "string",
          "name": "uri_",
          "type": "string"
        }
      ],
      "name": "__IDToken_init",
      "outputs": [],
      "stateMutability": "nonpayable",
      "type": "function"
    },
    {
      "inputs": [
        {
          "internalType": "address",
          "name": "account",
          "type": "address"
        },
        {
          "internalType": "uint256",
          "name": "id",
          "type": "uint256"
        }
      ],
      "name": "balanceOf",
      "outputs": [
        {
          "internalType": "uint256",
          "name": "",
          "type": "uint256"
        }
      ],
      "stateMutability": "view",
      "type": "function"
    },
    {
      "inputs": [
        {
          "internalType": "address[]",
          "name": "accounts",
          "type": "address[]"
        },
        {
          "internalType": "uint256[]",
          "name": "ids",
          "type": "uint256[]"
        }
      ],
      "name": "balanceOfBatch",
      "outputs": [
        {
          "internalType": "uint256[]",
          "name": "",
          "type": "uint256[]"
        }
      ],
      "stateMutability": "view",
      "type": "function"
    },
    {
      "inputs": [
        {
          "internalType": "uint256",
          "name": "id",
          "type": "uint256"
        }
      ],
      "name": "burn",
      "outputs": [],
      "stateMutability": "nonpayable",
      "type": "function"
    },
    {
      "inputs": [
        {
          "internalType": "uint256",
          "name": "id",
          "type": "uint256"
        }
      ],
      "name": "exists",
      "outputs": [
        {
          "internalType": "bool",
          "name": "",
          "type": "bool"
        }
      ],
      "stateMutability": "view",
      "type": "function"
    },
    {
      "inputs": [
        {
          "internalType": "bytes32",
          "name": "role",
          "type": "bytes32"
        }
      ],
      "name": "getRoleAdmin",
      "outputs": [
        {
          "internalType": "bytes32",
          "name": "",
          "type": "bytes32"
        }
      ],
      "stateMutability": "view",
      "type": "function"
    },
    {
      "inputs": [
        {
          "internalType": "address",
          "name": "minter",
          "type": "address"
        },
        {
          "internalType": "uint256",
          "name": "id",
          "type": "uint256"
        }
      ],
      "name": "grantMinterRole",
      "outputs": [
        {
          "internalType": "bool",
          "name": "",
          "type": "bool"
        }
      ],
      "stateMutability": "nonpayable",
      "type": "function"
    },
    {
      "inputs": [
        {
          "internalType": "bytes32",
          "name": "role",
          "type": "bytes32"
        },
        {
          "internalType": "address",
          "name": "account",
          "type": "address"
        }
      ],
      "name": "grantRole",
      "outputs": [],
      "stateMutability": "nonpayable",
      "type": "function"
    },
    {
      "inputs": [
        {
          "internalType": "bytes32",
          "name": "role",
          "type": "bytes32"
        },
        {
          "internalType": "address",
          "name": "account",
          "type": "address"
        }
      ],
      "name": "hasRole",
      "outputs": [
        {
          "internalType": "bool",
          "name": "",
          "type": "bool"
        }
      ],
      "stateMutability": "view",
      "type": "function"
    },
    {
      "inputs": [
        {
          "internalType": "address",
          "name": "account",
          "type": "address"
        },
        {
          "internalType": "address",
          "name": "operator",
          "type": "address"
        }
      ],
      "name": "isApprovedForAll",
      "outputs": [
        {
          "internalType": "bool",
          "name": "",
          "type": "bool"
        }
      ],
      "stateMutability": "view",
      "type": "function"
    },
    {
      "inputs": [
        {
          "internalType": "uint256",
          "name": "id",
          "type": "uint256"
        }
      ],
      "name": "mint",
      "outputs": [],
      "stateMutability": "nonpayable",
      "type": "function"
    },
    {
      "inputs": [],
      "name": "name",
      "outputs": [
        {
          "internalType": "string",
          "name": "",
          "type": "string"
        }
      ],
      "stateMutability": "pure",
      "type": "function"
    },
    {
      "inputs": [],
      "name": "pauseOps",
      "outputs": [],
      "stateMutability": "nonpayable",
      "type": "function"
    },
    {
      "inputs": [],
      "name": "paused",
      "outputs": [
        {
          "internalType": "bool",
          "name": "",
          "type": "bool"
        }
      ],
      "stateMutability": "view",
      "type": "function"
    },
    {
      "inputs": [],
      "name": "proxiableUUID",
      "outputs": [
        {
          "internalType": "bytes32",
          "name": "",
          "type": "bytes32"
        }
      ],
      "stateMutability": "view",
      "type": "function"
    },
    {
      "inputs": [
        {
          "internalType": "bytes32",
          "name": "role",
          "type": "bytes32"
        },
        {
          "internalType": "address",
          "name": "account",
          "type": "address"
        }
      ],
      "name": "renounceRole",
      "outputs": [],
      "stateMutability": "nonpayable",
      "type": "function"
    },
    {
      "inputs": [
        {
          "internalType": "bytes32",
          "name": "role",
          "type": "bytes32"
        },
        {
          "internalType": "address",
          "name": "account",
          "type": "address"
        }
      ],
      "name": "revokeRole",
      "outputs": [],
      "stateMutability": "nonpayable",
      "type": "function"
    },
    {
      "inputs": [
        {
          "internalType": "address",
          "name": "from",
          "type": "address"
        },
        {
          "internalType": "address",
          "name": "to",
          "type": "address"
        },
        {
          "internalType": "uint256[]",
          "name": "ids",
          "type": "uint256[]"
        },
        {
          "internalType": "uint256[]",
          "name": "amounts",
          "type": "uint256[]"
        },
        {
          "internalType": "bytes",
          "name": "data",
          "type": "bytes"
        }
      ],
      "name": "safeBatchTransferFrom",
      "outputs": [],
      "stateMutability": "nonpayable",
      "type": "function"
    },
    {
      "inputs": [
        {
          "internalType": "address",
          "name": "from",
          "type": "address"
        },
        {
          "internalType": "address",
          "name": "to",
          "type": "address"
        },
        {
          "internalType": "uint256",
          "name": "id",
          "type": "uint256"
        },
        {
          "internalType": "uint256",
          "name": "amount",
          "type": "uint256"
        },
        {
          "internalType": "bytes",
          "name": "data",
          "type": "bytes"
        }
      ],
      "name": "safeTransferFrom",
      "outputs": [],
      "stateMutability": "nonpayable",
      "type": "function"
    },
    {
      "inputs": [
        {
          "internalType": "address",
          "name": "operator",
          "type": "address"
        },
        {
          "internalType": "bool",
          "name": "approved",
          "type": "bool"
        }
      ],
      "name": "setApprovalForAll",
      "outputs": [],
      "stateMutability": "nonpayable",
      "type": "function"
    },
    {
      "inputs": [
        {
          "internalType": "bytes4",
          "name": "interfaceId",
          "type": "bytes4"
        }
      ],
      "name": "supportsInterface",
      "outputs": [
        {
          "internalType": "bool",
          "name": "",
          "type": "bool"
        }
      ],
      "stateMutability": "view",
      "type": "function"
    },
    {
      "inputs": [],
      "name": "symbol",
      "outputs": [
        {
          "internalType": "string",
          "name": "",
          "type": "string"
        }
      ],
      "stateMutability": "pure",
      "type": "function"
    },
    {
      "inputs": [
        {
          "internalType": "uint256",
          "name": "id",
          "type": "uint256"
        }
      ],
      "name": "totalSupply",
      "outputs": [
        {
          "internalType": "uint256",
          "name": "",
          "type": "uint256"
        }
      ],
      "stateMutability": "view",
      "type": "function"
    },
    {
      "inputs": [],
      "name": "unpauseOps",
      "outputs": [],
      "stateMutability": "nonpayable",
      "type": "function"
    },
    {
      "inputs": [
        {
          "internalType": "string",
          "name": "uri_",
          "type": "string"
        }
      ],
      "name": "updateURI",
      "outputs": [],
      "stateMutability": "nonpayable",
      "type": "function"
    },
    {
      "inputs": [
        {
          "internalType": "address",
          "name": "newImplementation",
          "type": "address"
        }
      ],
      "name": "upgradeTo",
      "outputs": [],
      "stateMutability": "nonpayable",
      "type": "function"
    },
    {
      "inputs": [
        {
          "internalType": "address",
          "name": "newImplementation",
          "type": "address"
        },
        {
          "internalType": "bytes",
          "name": "data",
          "type": "bytes"
        }
      ],
      "name": "upgradeToAndCall",
      "outputs": [],
      "stateMutability": "payable",
      "type": "function"
    },
    {
      "inputs": [
        {
          "internalType": "uint256",
          "name": "",
          "type": "uint256"
        }
      ],
      "name": "uri",
      "outputs": [
        {
          "internalType": "string",
          "name": "",
          "type": "string"
        }
      ],
      "stateMutability": "view",
      "type": "function"
    },
    {
      "inputs": [],
      "name": "version",
      "outputs": [
        {
          "internalType": "string",
          "name": "",
          "type": "string"
        }
      ],
      "stateMutability": "pure",
      "type": "function"
    }
  ],
  "transactionHash": "0x10c7822b9895a0c25de269b48a600e25dc05f8d431d61c55f892a1b4ec127bff",
  "args": [],
  "numDeployments": 2,
  "solcInputHash": "2a1573a4803c83e5fdbf28fbc92ea0ca",
  "bytecode": "0x60a06040523060805234801561001457600080fd5b5060805161384b61004c60003960008181610bf601528181610c7b01528181610f2a01528181610faf0152611095015261384b6000f3fe6080604052600436106102335760003560e01c80635c975abb11610138578063b8af033c116100b0578063d547741f1161007f578063e36c845011610064578063e36c8450146106cd578063e985e9c5146106e2578063f242432a1461072b57600080fd5b8063d547741f14610698578063dc017c7f146106b857600080fd5b8063b8af033c14610620578063bd85b03914610635578063c30f4a5a14610663578063c9889a9e1461068357600080fd5b806391d1485411610107578063a0712d68116100ec578063a0712d68146105cb578063a217fddf146105eb578063a22cb4651461060057600080fd5b806391d148541461053f57806395d89b411461058557600080fd5b80635c975abb146104dc57806361bf19be146104f55780636b03028b1461050a57806390465df51461051f57600080fd5b80632f2ff15d116101cb5780634e1273f41161019a5780634f558e791161017f5780634f558e791461045157806352d1902d1461048157806354fd4d501461049657600080fd5b80634e1273f4146104115780634f1ef2861461043e57600080fd5b80632f2ff15d1461039157806336568abe146103b15780633659cfe6146103d157806342966c68146103f157600080fd5b806317cdf1a31161020757806317cdf1a31461030a57806321299c511461032c578063248a9ca3146103415780632eb2c2d61461037157600080fd5b8062fdd58e1461023857806301ffc9a71461026b57806306fdde031461029b5780630e89341c146102ea575b600080fd5b34801561024457600080fd5b50610258610253366004612f5d565b61074b565b6040519081526020015b60405180910390f35b34801561027757600080fd5b5061028b610286366004612f9d565b6107f6565b6040519015158152602001610262565b3480156102a757600080fd5b5060408051808201909152600781527f4944546f6b656e0000000000000000000000000000000000000000000000000060208201525b6040516102629190613012565b3480156102f657600080fd5b506102dd610305366004613025565b610870565b34801561031657600080fd5b5061032a6103253660046130f5565b610904565b005b34801561033857600080fd5b50610258600281565b34801561034d57600080fd5b5061025861035c366004613025565b60009081526097602052604090206001015490565b34801561037d57600080fd5b5061032a61038c3660046131d8565b610a98565b34801561039d57600080fd5b5061032a6103ac366004613282565b610b3a565b3480156103bd57600080fd5b5061032a6103cc366004613282565b610b5f565b3480156103dd57600080fd5b5061032a6103ec3660046132ae565b610beb565b3480156103fd57600080fd5b5061032a61040c366004613025565b610d67565b34801561041d57600080fd5b5061043161042c3660046132c9565b610de1565b60405161026291906133c5565b61032a61044c3660046130f5565b610f1f565b34801561045d57600080fd5b5061028b61046c366004613025565b60009081526101646020526040902054151590565b34801561048d57600080fd5b50610258611088565b3480156104a257600080fd5b5060408051808201909152600581527f312e302e3000000000000000000000000000000000000000000000000000000060208201526102dd565b3480156104e857600080fd5b5061012d5460ff1661028b565b34801561050157600080fd5b50610258600481565b34801561051657600080fd5b50610258600381565b34801561052b57600080fd5b5061028b61053a366004612f5d565b61114e565b34801561054b57600080fd5b5061028b61055a366004613282565b60009182526097602090815260408084206001600160a01b0393909316845291905290205460ff1690565b34801561059157600080fd5b5060408051808201909152600381527f494454000000000000000000000000000000000000000000000000000000000060208201526102dd565b3480156105d757600080fd5b5061032a6105e6366004613025565b611256565b3480156105f757600080fd5b50610258600081565b34801561060c57600080fd5b5061032a61061b3660046133d8565b611327565b34801561062c57600080fd5b50610258600581565b34801561064157600080fd5b50610258610650366004613025565b6000908152610164602052604090205490565b34801561066f57600080fd5b5061032a61067e366004613414565b611332565b34801561068f57600080fd5b5061032a61134e565b3480156106a457600080fd5b5061032a6106b3366004613282565b6113e2565b3480156106c457600080fd5b5061032a611407565b3480156106d957600080fd5b50610258600181565b3480156106ee57600080fd5b5061028b6106fd366004613451565b6001600160a01b03918216600090815260666020908152604080832093909416825291909152205460ff1690565b34801561073757600080fd5b5061032a61074636600461347b565b611480565b60006001600160a01b0383166107ce5760405162461bcd60e51b815260206004820152602a60248201527f455243313135353a2061646472657373207a65726f206973206e6f742061207660448201527f616c6964206f776e65720000000000000000000000000000000000000000000060648201526084015b60405180910390fd5b5060009081526065602090815260408083206001600160a01b03949094168352929052205490565b60006001600160e01b03198216636cdb3d1360e11b148061082757506001600160e01b031982166303a24d0760e21b145b8061085b57506001600160e01b031982167fda8def7300000000000000000000000000000000000000000000000000000000145b8061086a575061086a8261151b565b92915050565b60606067805461087f906134e0565b80601f01602080910402602001604051908101604052809291908181526020018280546108ab906134e0565b80156108f85780601f106108cd576101008083540402835291602001916108f8565b820191906000526020600020905b8154815290600101906020018083116108db57829003601f168201915b50505050509050919050565b600054610100900460ff16158080156109245750600054600160ff909116105b8061093e5750303b15801561093e575060005460ff166001145b6109b05760405162461bcd60e51b815260206004820152602e60248201527f496e697469616c697a61626c653a20636f6e747261637420697320616c72656160448201527f647920696e697469616c697a656400000000000000000000000000000000000060648201526084016107c5565b6000805460ff1916600117905580156109d3576000805461ff0019166101001790555b6109dc33611559565b6109e583611559565b6109ee826115af565b6109f6611623565b6109fe611623565b610a0661168e565b610a11600033611701565b6040516c55504752414445525f524f4c4560981b6020820152610a4d90602d016040516020818303038152906040528051906020012084611701565b8015610a93576000805461ff0019169055604051600181527f7f26b83ff96e1f2b6a682f133852f6798a09c465da95921460cefb38474024989060200160405180910390a15b505050565b6001600160a01b038516331480610ab45750610ab485336106fd565b610b265760405162461bcd60e51b815260206004820152602e60248201527f455243313135353a2063616c6c6572206973206e6f7420746f6b656e206f776e60448201527f6572206f7220617070726f76656400000000000000000000000000000000000060648201526084016107c5565b610b33858585858561170b565b5050505050565b600082815260976020526040902060010154610b558161198f565b610a938383611999565b6001600160a01b0381163314610bdd5760405162461bcd60e51b815260206004820152602f60248201527f416363657373436f6e74726f6c3a2063616e206f6e6c792072656e6f756e636560448201527f20726f6c657320666f722073656c66000000000000000000000000000000000060648201526084016107c5565b610be78282611a3b565b5050565b306001600160a01b037f0000000000000000000000000000000000000000000000000000000000000000161415610c795760405162461bcd60e51b815260206004820152602c60248201527f46756e6374696f6e206d7573742062652063616c6c6564207468726f7567682060448201526b19195b1959d85d1958d85b1b60a21b60648201526084016107c5565b7f00000000000000000000000000000000000000000000000000000000000000006001600160a01b0316610cd47f360894a13ba1a3210667c828492db98dca3e2076cc3735a920a3ca505d382bbc546001600160a01b031690565b6001600160a01b031614610d3f5760405162461bcd60e51b815260206004820152602c60248201527f46756e6374696f6e206d7573742062652063616c6c6564207468726f7567682060448201526b6163746976652070726f787960a01b60648201526084016107c5565b610d4881611abe565b60408051600080825260208201909252610d6491839190611bac565b50565b6040516a4d494e5445525f524f4c4560a81b6020820152602b0160405160208183030381529060405280519060200120610da08161198f565b610da8611d4c565b610db182611da0565b610dbd33836001611df1565b600082815261016460205260408120805491610dd883613531565b91905055505050565b60608151835114610e5a5760405162461bcd60e51b815260206004820152602960248201527f455243313135353a206163636f756e747320616e6420696473206c656e67746860448201527f206d69736d61746368000000000000000000000000000000000000000000000060648201526084016107c5565b6000835167ffffffffffffffff811115610e7657610e7661303e565b604051908082528060200260200182016040528015610e9f578160200160208202803683370190505b50905060005b8451811015610f1757610eea858281518110610ec357610ec3613548565b6020026020010151858381518110610edd57610edd613548565b602002602001015161074b565b828281518110610efc57610efc613548565b6020908102919091010152610f108161355e565b9050610ea5565b509392505050565b306001600160a01b037f0000000000000000000000000000000000000000000000000000000000000000161415610fad5760405162461bcd60e51b815260206004820152602c60248201527f46756e6374696f6e206d7573742062652063616c6c6564207468726f7567682060448201526b19195b1959d85d1958d85b1b60a21b60648201526084016107c5565b7f00000000000000000000000000000000000000000000000000000000000000006001600160a01b03166110087f360894a13ba1a3210667c828492db98dca3e2076cc3735a920a3ca505d382bbc546001600160a01b031690565b6001600160a01b0316146110735760405162461bcd60e51b815260206004820152602c60248201527f46756e6374696f6e206d7573742062652063616c6c6564207468726f7567682060448201526b6163746976652070726f787960a01b60648201526084016107c5565b61107c82611abe565b610be782826001611bac565b6000306001600160a01b037f000000000000000000000000000000000000000000000000000000000000000016146111285760405162461bcd60e51b815260206004820152603860248201527f555550535570677261646561626c653a206d757374206e6f742062652063616c60448201527f6c6564207468726f7567682064656c656761746563616c6c000000000000000060648201526084016107c5565b507f360894a13ba1a3210667c828492db98dca3e2076cc3735a920a3ca505d382bbc5b90565b60008061115a8161198f565b611162611d4c565b61116b84611559565b61117483611da0565b61117e848461074b565b611204576040516a4d494e5445525f524f4c4560a81b60208201526111bc90602b016040516020818303038152906040528051906020012085611999565b836001600160a01b03167f7359df4a2ac9e38fb7388b0452d6e67f07baf2bb35b06645a940da3204a726fc846040516111f791815260200190565b60405180910390a261124c565b60405162461bcd60e51b815260206004820152601a60248201527f746f6b656e2065697468657220736574206f72206d696e74656400000000000060448201526064016107c5565b5060019392505050565b6040516a4d494e5445525f524f4c4560a81b6020820152602b016040516020818303038152906040528051906020012061128f8161198f565b611299338361114e565b6112e55760405162461bcd60e51b815260206004820152601560248201527f756e617574686f72697a656420746f6b656e206964000000000000000000000060448201526064016107c5565b6000828152610164602052604081208054916113008361355e565b9190505550610be761130f3390565b83600160405180602001604052806000815250611fbd565b610be73383836120f5565b600061133d8161198f565b611345611d4c565b610be7826121ea565b61135960003361055a565b8061139d57506040516c55504752414445525f524f4c4560981b602082015261139d90602d015b6040516020818303038152906040528051906020012061055a3390565b6113d85760405162461bcd60e51b815260206004820152600c60248201526b6d697373696e6720726f6c6560a01b60448201526064016107c5565b6113e06121fd565b565b6000828152609760205260409020600101546113fd8161198f565b610a938383611a3b565b61141260003361055a565b8061143d57506040516c55504752414445525f524f4c4560981b602082015261143d90602d01611380565b6114785760405162461bcd60e51b815260206004820152600c60248201526b6d697373696e6720726f6c6560a01b60448201526064016107c5565b6113e0612250565b6001600160a01b03851633148061149c575061149c85336106fd565b61150e5760405162461bcd60e51b815260206004820152602e60248201527f455243313135353a2063616c6c6572206973206e6f7420746f6b656e206f776e60448201527f6572206f7220617070726f76656400000000000000000000000000000000000060648201526084016107c5565b610b33858585858561228e565b60006001600160e01b031982167f7965db0b00000000000000000000000000000000000000000000000000000000148061086a575061086a8261244b565b6001600160a01b038116610d645760405162461bcd60e51b815260206004820152601960248201527f61646472657373207a65726f20756e617574686f72697a65640000000000000060448201526064016107c5565b600054610100900460ff1661161a5760405162461bcd60e51b815260206004820152602b60248201527f496e697469616c697a61626c653a20636f6e7472616374206973206e6f74206960448201526a6e697469616c697a696e6760a81b60648201526084016107c5565b610d64816124b4565b600054610100900460ff166113e05760405162461bcd60e51b815260206004820152602b60248201527f496e697469616c697a61626c653a20636f6e7472616374206973206e6f74206960448201526a6e697469616c697a696e6760a81b60648201526084016107c5565b600054610100900460ff166116f95760405162461bcd60e51b815260206004820152602b60248201527f496e697469616c697a61626c653a20636f6e7472616374206973206e6f74206960448201526a6e697469616c697a696e6760a81b60648201526084016107c5565b6113e0612528565b610be78282611999565b81518351146117825760405162461bcd60e51b815260206004820152602860248201527f455243313135353a2069647320616e6420616d6f756e7473206c656e6774682060448201527f6d69736d6174636800000000000000000000000000000000000000000000000060648201526084016107c5565b6001600160a01b0384166117e65760405162461bcd60e51b815260206004820152602560248201527f455243313135353a207472616e7366657220746f20746865207a65726f206164604482015264647265737360d81b60648201526084016107c5565b336117f58187878787876125a0565b60005b845181101561192157600085828151811061181557611815613548565b60200260200101519050600085838151811061183357611833613548565b60209081029190910181015160008481526065835260408082206001600160a01b038e1683529093529190912054909150818110156118c75760405162461bcd60e51b815260206004820152602a60248201527f455243313135353a20696e73756666696369656e742062616c616e636520666f60448201526939103a3930b739b332b960b11b60648201526084016107c5565b60008381526065602090815260408083206001600160a01b038e8116855292528083208585039055908b16825281208054849290611906908490613579565b925050819055505050508061191a9061355e565b90506117f8565b50846001600160a01b0316866001600160a01b0316826001600160a01b03167f4a39dc06d4c0dbc64b70af90fd698a233a518aa5d07e595d983b8c0526c8f7fb8787604051611971929190613591565b60405180910390a4611987818787878787612689565b505050505050565b610d64813361282f565b60008281526097602090815260408083206001600160a01b038516845290915290205460ff16610be75760008281526097602090815260408083206001600160a01b03851684529091529020805460ff191660011790556119f73390565b6001600160a01b0316816001600160a01b0316837f2f8788117e7eff1d82e926ec794901d17c78024a50270940304540a733656f0d60405160405180910390a45050565b60008281526097602090815260408083206001600160a01b038516845290915290205460ff1615610be75760008281526097602090815260408083206001600160a01b0385168085529252808320805460ff1916905551339285917ff6391f5c32d9c69d2a47ea670b442974b53935d1edc7fd64eb21e047a839171b9190a45050565b6040516c55504752414445525f524f4c4560981b6020820152602d0160405160208183030381529060405280519060200120611af98161198f565b611b0282611559565b6001600160a01b0382163b611b595760405162461bcd60e51b815260206004820152601f60248201527f6e657720696d706c656d656e746174696f6e206e6f7420636f6e74726163740060448201526064016107c5565b61012d5460ff16610be75760405162461bcd60e51b815260206004820152601860248201527f7061757365206f7073206265666f72652075706772616465000000000000000060448201526064016107c5565b7f4910fdfa16fed3260ed0e7147f7cc6da11a60208b5b9406d12a635614ffd91435460ff1615611bdf57610a93836128a4565b826001600160a01b03166352d1902d6040518163ffffffff1660e01b8152600401602060405180830381865afa925050508015611c39575060408051601f3d908101601f19168201909252611c36918101906135b6565b60015b611cab5760405162461bcd60e51b815260206004820152602e60248201527f45524331393637557067726164653a206e657720696d706c656d656e7461746960448201527f6f6e206973206e6f74205555505300000000000000000000000000000000000060648201526084016107c5565b7f360894a13ba1a3210667c828492db98dca3e2076cc3735a920a3ca505d382bbc8114611d405760405162461bcd60e51b815260206004820152602960248201527f45524331393637557067726164653a20756e737570706f727465642070726f7860448201527f6961626c6555554944000000000000000000000000000000000000000000000060648201526084016107c5565b50610a9383838361297a565b61012d5460ff16156113e05760405162461bcd60e51b815260206004820152601060248201527f5061757361626c653a207061757365640000000000000000000000000000000060448201526064016107c5565b6005811115610d645760405162461bcd60e51b815260206004820152601260248201527f756e617661696c61626c6520696420796574000000000000000000000000000060448201526064016107c5565b6001600160a01b038316611e6d5760405162461bcd60e51b815260206004820152602360248201527f455243313135353a206275726e2066726f6d20746865207a65726f206164647260448201527f657373000000000000000000000000000000000000000000000000000000000060648201526084016107c5565b336000611e79846129a5565b90506000611e86846129a5565b9050611ea6838760008585604051806020016040528060008152506125a0565b60008581526065602090815260408083206001600160a01b038a16845290915290205484811015611f3e5760405162461bcd60e51b8152602060048201526024808201527f455243313135353a206275726e20616d6f756e7420657863656564732062616c60448201527f616e63650000000000000000000000000000000000000000000000000000000060648201526084016107c5565b60008681526065602090815260408083206001600160a01b038b81168086529184528285208a8703905582518b81529384018a90529092908816917fc3d58168c5ae7397731d063d5bbf3d657854427343f4c083240f7aacaa2d0f62910160405180910390a46040805160208101909152600090525b50505050505050565b6001600160a01b0384166120395760405162461bcd60e51b815260206004820152602160248201527f455243313135353a206d696e7420746f20746865207a65726f2061646472657360448201527f730000000000000000000000000000000000000000000000000000000000000060648201526084016107c5565b336000612045856129a5565b90506000612052856129a5565b9050612063836000898585896125a0565b60008681526065602090815260408083206001600160a01b038b16845290915281208054879290612095908490613579565b909155505060408051878152602081018790526001600160a01b03808a1692600092918716917fc3d58168c5ae7397731d063d5bbf3d657854427343f4c083240f7aacaa2d0f62910160405180910390a4611fb4836000898989896129f0565b816001600160a01b0316836001600160a01b0316141561217d5760405162461bcd60e51b815260206004820152602960248201527f455243313135353a2073657474696e6720617070726f76616c2073746174757360448201527f20666f722073656c66000000000000000000000000000000000000000000000060648201526084016107c5565b6001600160a01b03838116600081815260666020908152604080832094871680845294825291829020805460ff191686151590811790915591519182527f17307eab39ab6107e8899845ad3d59bd9653f200f220920489ca2b5937696c31910160405180910390a3505050565b8051610be7906067906020840190612ea8565b612205612aec565b61012d805460ff191690557f5db9ee0a495bf2e6ff9c91a7834c1ba4fdd244a5e8aa4e537bd38aeae4b073aa335b6040516001600160a01b03909116815260200160405180910390a1565b612258611d4c565b61012d805460ff191660011790557f62e78cea01bee320cd4e420270b5ea74000d11b0c9f74754ebdbfc544b05a2586122333390565b6001600160a01b0384166122f25760405162461bcd60e51b815260206004820152602560248201527f455243313135353a207472616e7366657220746f20746865207a65726f206164604482015264647265737360d81b60648201526084016107c5565b3360006122fe856129a5565b9050600061230b856129a5565b905061231b8389898585896125a0565b60008681526065602090815260408083206001600160a01b038c168452909152902054858110156123a15760405162461bcd60e51b815260206004820152602a60248201527f455243313135353a20696e73756666696369656e742062616c616e636520666f60448201526939103a3930b739b332b960b11b60648201526084016107c5565b60008781526065602090815260408083206001600160a01b038d8116855292528083208985039055908a168252812080548892906123e0908490613579565b909155505060408051888152602081018890526001600160a01b03808b16928c821692918816917fc3d58168c5ae7397731d063d5bbf3d657854427343f4c083240f7aacaa2d0f62910160405180910390a4612440848a8a8a8a8a6129f0565b505050505050505050565b60006001600160e01b03198216636cdb3d1360e11b148061247c57506001600160e01b031982166303a24d0760e21b145b8061086a57507f01ffc9a7000000000000000000000000000000000000000000000000000000006001600160e01b031983161461086a565b600054610100900460ff1661251f5760405162461bcd60e51b815260206004820152602b60248201527f496e697469616c697a61626c653a20636f6e7472616374206973206e6f74206960448201526a6e697469616c697a696e6760a81b60648201526084016107c5565b610d64816121ea565b600054610100900460ff166125935760405162461bcd60e51b815260206004820152602b60248201527f496e697469616c697a61626c653a20636f6e7472616374206973206e6f74206960448201526a6e697469616c697a696e6760a81b60648201526084016107c5565b61012d805460ff19169055565b61012d5460ff16156125f45760405162461bcd60e51b815260206004820152601260248201527f636f6e747261637420697320706175736564000000000000000000000000000060448201526064016107c5565b6001600160a01b03851615801561261357506001600160a01b03841615155b8061263857506001600160a01b0385161580159061263857506001600160a01b038416155b6126845760405162461bcd60e51b815260206004820152601760248201527f7472616e73666572206973206e6f7420616c6c6f77656400000000000000000060448201526064016107c5565b611987565b6001600160a01b0384163b156119875760405163bc197c8160e01b81526001600160a01b0385169063bc197c81906126cd90899089908890889088906004016135cf565b6020604051808303816000875af1925050508015612708575060408051601f3d908101601f191682019092526127059181019061362d565b60015b6127be5761271461364a565b806308c379a0141561274e5750612729613665565b806127345750612750565b8060405162461bcd60e51b81526004016107c59190613012565b505b60405162461bcd60e51b815260206004820152603460248201527f455243313135353a207472616e7366657220746f206e6f6e2d4552433131353560448201527f526563656976657220696d706c656d656e74657200000000000000000000000060648201526084016107c5565b6001600160e01b0319811663bc197c8160e01b14611fb45760405162461bcd60e51b815260206004820152602860248201527f455243313135353a204552433131353552656365697665722072656a656374656044820152676420746f6b656e7360c01b60648201526084016107c5565b60008281526097602090815260408083206001600160a01b038516845290915290205460ff16610be75761286281612b3f565b61286d836020612b51565b60405160200161287e9291906136ef565b60408051601f198184030181529082905262461bcd60e51b82526107c591600401613012565b6001600160a01b0381163b6129215760405162461bcd60e51b815260206004820152602d60248201527f455243313936373a206e657720696d706c656d656e746174696f6e206973206e60448201527f6f74206120636f6e74726163740000000000000000000000000000000000000060648201526084016107c5565b7f360894a13ba1a3210667c828492db98dca3e2076cc3735a920a3ca505d382bbc80547fffffffffffffffffffffffff0000000000000000000000000000000000000000166001600160a01b0392909216919091179055565b61298383612d39565b6000825111806129905750805b15610a935761299f8383612d79565b50505050565b604080516001808252818301909252606091600091906020808301908036833701905050905082816000815181106129df576129df613548565b602090810291909101015292915050565b6001600160a01b0384163b156119875760405163f23a6e6160e01b81526001600160a01b0385169063f23a6e6190612a349089908990889088908890600401613770565b6020604051808303816000875af1925050508015612a6f575060408051601f3d908101601f19168201909252612a6c9181019061362d565b60015b612a7b5761271461364a565b6001600160e01b0319811663f23a6e6160e01b14611fb45760405162461bcd60e51b815260206004820152602860248201527f455243313135353a204552433131353552656365697665722072656a656374656044820152676420746f6b656e7360c01b60648201526084016107c5565b61012d5460ff166113e05760405162461bcd60e51b815260206004820152601460248201527f5061757361626c653a206e6f742070617573656400000000000000000000000060448201526064016107c5565b606061086a6001600160a01b03831660145b60606000612b608360026137b3565b612b6b906002613579565b67ffffffffffffffff811115612b8357612b8361303e565b6040519080825280601f01601f191660200182016040528015612bad576020820181803683370190505b5090507f300000000000000000000000000000000000000000000000000000000000000081600081518110612be457612be4613548565b60200101906001600160f81b031916908160001a9053507f780000000000000000000000000000000000000000000000000000000000000081600181518110612c2f57612c2f613548565b60200101906001600160f81b031916908160001a9053506000612c538460026137b3565b612c5e906001613579565b90505b6001811115612ce3577f303132333435363738396162636465660000000000000000000000000000000085600f1660108110612c9f57612c9f613548565b1a60f81b828281518110612cb557612cb5613548565b60200101906001600160f81b031916908160001a90535060049490941c93612cdc81613531565b9050612c61565b508315612d325760405162461bcd60e51b815260206004820181905260248201527f537472696e67733a20686578206c656e67746820696e73756666696369656e7460448201526064016107c5565b9392505050565b612d42816128a4565b6040516001600160a01b038216907fbc7cd75a20ee27fd9adebab32041f755214dbc6bffa90cc0225b39da2e5c2d3b90600090a250565b60606001600160a01b0383163b612df85760405162461bcd60e51b815260206004820152602660248201527f416464726573733a2064656c65676174652063616c6c20746f206e6f6e2d636f60448201527f6e7472616374000000000000000000000000000000000000000000000000000060648201526084016107c5565b600080846001600160a01b031684604051612e1391906137d2565b600060405180830381855af49150503d8060008114612e4e576040519150601f19603f3d011682016040523d82523d6000602084013e612e53565b606091505b5091509150612e7b82826040518060600160405280602781526020016137ef60279139612e84565b95945050505050565b60608315612e93575081612d32565b612d3283838151156127345781518083602001fd5b828054612eb4906134e0565b90600052602060002090601f016020900481019282612ed65760008555612f1c565b82601f10612eef57805160ff1916838001178555612f1c565b82800160010185558215612f1c579182015b82811115612f1c578251825591602001919060010190612f01565b50612f28929150612f2c565b5090565b5b80821115612f285760008155600101612f2d565b80356001600160a01b0381168114612f5857600080fd5b919050565b60008060408385031215612f7057600080fd5b612f7983612f41565b946020939093013593505050565b6001600160e01b031981168114610d6457600080fd5b600060208284031215612faf57600080fd5b8135612d3281612f87565b60005b83811015612fd5578181015183820152602001612fbd565b8381111561299f5750506000910152565b60008151808452612ffe816020860160208601612fba565b601f01601f19169290920160200192915050565b602081526000612d326020830184612fe6565b60006020828403121561303757600080fd5b5035919050565b634e487b7160e01b600052604160045260246000fd5b601f8201601f1916810167ffffffffffffffff8111828210171561307a5761307a61303e565b6040525050565b600082601f83011261309257600080fd5b813567ffffffffffffffff8111156130ac576130ac61303e565b6040516130c3601f8301601f191660200182613054565b8181528460208386010111156130d857600080fd5b816020850160208301376000918101602001919091529392505050565b6000806040838503121561310857600080fd5b61311183612f41565b9150602083013567ffffffffffffffff81111561312d57600080fd5b61313985828601613081565b9150509250929050565b600067ffffffffffffffff82111561315d5761315d61303e565b5060051b60200190565b600082601f83011261317857600080fd5b8135602061318582613143565b6040516131928282613054565b83815260059390931b85018201928281019150868411156131b257600080fd5b8286015b848110156131cd57803583529183019183016131b6565b509695505050505050565b600080600080600060a086880312156131f057600080fd5b6131f986612f41565b945061320760208701612f41565b9350604086013567ffffffffffffffff8082111561322457600080fd5b61323089838a01613167565b9450606088013591508082111561324657600080fd5b61325289838a01613167565b9350608088013591508082111561326857600080fd5b5061327588828901613081565b9150509295509295909350565b6000806040838503121561329557600080fd5b823591506132a560208401612f41565b90509250929050565b6000602082840312156132c057600080fd5b612d3282612f41565b600080604083850312156132dc57600080fd5b823567ffffffffffffffff808211156132f457600080fd5b818501915085601f83011261330857600080fd5b8135602061331582613143565b6040516133228282613054565b83815260059390931b850182019282810191508984111561334257600080fd5b948201945b838610156133675761335886612f41565b82529482019490820190613347565b9650508601359250508082111561337d57600080fd5b5061313985828601613167565b600081518084526020808501945080840160005b838110156133ba5781518752958201959082019060010161339e565b509495945050505050565b602081526000612d32602083018461338a565b600080604083850312156133eb57600080fd5b6133f483612f41565b91506020830135801515811461340957600080fd5b809150509250929050565b60006020828403121561342657600080fd5b813567ffffffffffffffff81111561343d57600080fd5b61344984828501613081565b949350505050565b6000806040838503121561346457600080fd5b61346d83612f41565b91506132a560208401612f41565b600080600080600060a0868803121561349357600080fd5b61349c86612f41565b94506134aa60208701612f41565b93506040860135925060608601359150608086013567ffffffffffffffff8111156134d457600080fd5b61327588828901613081565b600181811c908216806134f457607f821691505b6020821081141561351557634e487b7160e01b600052602260045260246000fd5b50919050565b634e487b7160e01b600052601160045260246000fd5b6000816135405761354061351b565b506000190190565b634e487b7160e01b600052603260045260246000fd5b60006000198214156135725761357261351b565b5060010190565b6000821982111561358c5761358c61351b565b500190565b6040815260006135a4604083018561338a565b8281036020840152612e7b818561338a565b6000602082840312156135c857600080fd5b5051919050565b60006001600160a01b03808816835280871660208401525060a060408301526135fb60a083018661338a565b828103606084015261360d818661338a565b905082810360808401526136218185612fe6565b98975050505050505050565b60006020828403121561363f57600080fd5b8151612d3281612f87565b600060033d111561114b5760046000803e5060005160e01c90565b600060443d10156136735790565b6040516003193d81016004833e81513d67ffffffffffffffff81602484011181841117156136a357505050505090565b82850191508151818111156136bb5750505050505090565b843d87010160208285010111156136d55750505050505090565b6136e460208286010187613054565b509095945050505050565b7f416363657373436f6e74726f6c3a206163636f756e7420000000000000000000815260008351613727816017850160208801612fba565b7f206973206d697373696e6720726f6c65200000000000000000000000000000006017918401918201528351613764816028840160208801612fba565b01602801949350505050565b60006001600160a01b03808816835280871660208401525084604083015283606083015260a060808301526137a860a0830184612fe6565b979650505050505050565b60008160001904831182151516156137cd576137cd61351b565b500290565b600082516137e4818460208701612fba565b919091019291505056fe416464726573733a206c6f772d6c6576656c2064656c65676174652063616c6c206661696c6564a2646970667358221220f579d9b73c5d7bbf8fe296e855db35936471e462a36988993ac03efb44f3829164736f6c634300080a0033",
  "devdoc": {
    "kind": "dev",
    "methods": {
      "balanceOf(address,uint256)": {
        "details": "See {IERC1155-balanceOf}. Requirements: - `account` cannot be the zero address."
      },
      "balanceOfBatch(address[],uint256[])": {
        "details": "See {IERC1155-balanceOfBatch}. Requirements: - `accounts` and `ids` must have the same length."
      },
      "getRoleAdmin(bytes32)": {
        "details": "Returns the admin role that controls `role`. See {grantRole} and {revokeRole}. To change a role's admin, use {_setRoleAdmin}."
      },
      "grantRole(bytes32,address)": {
        "details": "Grants `role` to `account`. If `account` had not been already granted `role`, emits a {RoleGranted} event. Requirements: - the caller must have ``role``'s admin role. May emit a {RoleGranted} event."
      },
      "hasRole(bytes32,address)": {
        "details": "Returns `true` if `account` has been granted `role`."
      },
      "isApprovedForAll(address,address)": {
        "details": "See {IERC1155-isApprovedForAll}."
      },
      "paused()": {
        "details": "Returns true if the contract is paused, and false otherwise."
      },
      "proxiableUUID()": {
        "details": "Implementation of the ERC1822 {proxiableUUID} function. This returns the storage slot used by the implementation. It is used to validate the implementation's compatibility when performing an upgrade. IMPORTANT: A proxy pointing at a proxiable contract should not be considered proxiable itself, because this risks bricking a proxy that upgrades to it, by delegating to itself until out of gas. Thus it is critical that this function revert if invoked through a proxy. This is guaranteed by the `notDelegated` modifier."
      },
      "renounceRole(bytes32,address)": {
        "details": "Revokes `role` from the calling account. Roles are often managed via {grantRole} and {revokeRole}: this function's purpose is to provide a mechanism for accounts to lose their privileges if they are compromised (such as when a trusted device is misplaced). If the calling account had been revoked `role`, emits a {RoleRevoked} event. Requirements: - the caller must be `account`. May emit a {RoleRevoked} event."
      },
      "revokeRole(bytes32,address)": {
        "details": "Revokes `role` from `account`. If `account` had been granted `role`, emits a {RoleRevoked} event. Requirements: - the caller must have ``role``'s admin role. May emit a {RoleRevoked} event."
      },
      "safeBatchTransferFrom(address,address,uint256[],uint256[],bytes)": {
        "details": "See {IERC1155-safeBatchTransferFrom}."
      },
      "safeTransferFrom(address,address,uint256,uint256,bytes)": {
        "details": "See {IERC1155-safeTransferFrom}."
      },
      "setApprovalForAll(address,bool)": {
        "details": "See {IERC1155-setApprovalForAll}."
      },
      "upgradeTo(address)": {
        "details": "Upgrade the implementation of the proxy to `newImplementation`. Calls {_authorizeUpgrade}. Emits an {Upgraded} event."
      },
      "upgradeToAndCall(address,bytes)": {
        "details": "Upgrade the implementation of the proxy to `newImplementation`, and subsequently execute the function call encoded in `data`. Calls {_authorizeUpgrade}. Emits an {Upgraded} event."
      },
      "uri(uint256)": {
        "details": "See {IERC1155MetadataURI-uri}. This implementation returns the same URI for *all* token types. It relies on the token type ID substitution mechanism https://eips.ethereum.org/EIPS/eip-1155#metadata[defined in the EIP]. Clients calling this function must replace the `\\{id\\}` substring with the actual token type ID."
      }
    },
    "version": 1
  },
  "userdoc": {
    "kind": "user",
    "methods": {},
    "version": 1
  },
  "storageLayout": {
    "storage": [
      {
        "astId": 804,
        "contract": "contracts/IDToken.sol:IDToken",
        "label": "_initialized",
        "offset": 0,
        "slot": "0",
        "type": "t_uint8"
      },
      {
        "astId": 807,
        "contract": "contracts/IDToken.sol:IDToken",
        "label": "_initializing",
        "offset": 1,
        "slot": "0",
        "type": "t_bool"
      },
      {
        "astId": 2977,
        "contract": "contracts/IDToken.sol:IDToken",
        "label": "__gap",
        "offset": 0,
        "slot": "1",
        "type": "t_array(t_uint256)50_storage"
      },
      {
        "astId": 3256,
        "contract": "contracts/IDToken.sol:IDToken",
        "label": "__gap",
        "offset": 0,
        "slot": "51",
        "type": "t_array(t_uint256)50_storage"
      },
      {
        "astId": 1258,
        "contract": "contracts/IDToken.sol:IDToken",
        "label": "_balances",
        "offset": 0,
        "slot": "101",
        "type": "t_mapping(t_uint256,t_mapping(t_address,t_uint256))"
      },
      {
        "astId": 1264,
        "contract": "contracts/IDToken.sol:IDToken",
        "label": "_operatorApprovals",
        "offset": 0,
        "slot": "102",
        "type": "t_mapping(t_address,t_mapping(t_address,t_bool))"
      },
      {
        "astId": 1266,
        "contract": "contracts/IDToken.sol:IDToken",
        "label": "_uri",
        "offset": 0,
        "slot": "103",
        "type": "t_string_storage"
      },
      {
        "astId": 2473,
        "contract": "contracts/IDToken.sol:IDToken",
        "label": "__gap",
        "offset": 0,
        "slot": "104",
        "type": "t_array(t_uint256)47_storage"
      },
      {
        "astId": 39,
        "contract": "contracts/IDToken.sol:IDToken",
        "label": "_roles",
        "offset": 0,
        "slot": "151",
        "type": "t_mapping(t_bytes32,t_struct(RoleData)34_storage)"
      },
      {
        "astId": 334,
        "contract": "contracts/IDToken.sol:IDToken",
        "label": "__gap",
        "offset": 0,
        "slot": "152",
        "type": "t_array(t_uint256)49_storage"
      },
      {
        "astId": 786,
        "contract": "contracts/IDToken.sol:IDToken",
        "label": "__gap",
        "offset": 0,
        "slot": "201",
        "type": "t_array(t_uint256)50_storage"
      },
      {
        "astId": 1101,
        "contract": "contracts/IDToken.sol:IDToken",
        "label": "__gap",
        "offset": 0,
        "slot": "251",
        "type": "t_array(t_uint256)50_storage"
      },
      {
        "astId": 1123,
        "contract": "contracts/IDToken.sol:IDToken",
        "label": "_paused",
        "offset": 0,
        "slot": "301",
        "type": "t_bool"
      },
      {
        "astId": 1228,
        "contract": "contracts/IDToken.sol:IDToken",
        "label": "__gap",
        "offset": 0,
        "slot": "302",
        "type": "t_array(t_uint256)49_storage"
      },
      {
        "astId": 4991,
        "contract": "contracts/IDToken.sol:IDToken",
        "label": "availIds",
        "offset": 0,
        "slot": "351",
        "type": "t_array(t_uint256)5_storage"
      },
      {
        "astId": 4995,
        "contract": "contracts/IDToken.sol:IDToken",
        "label": "supply",
        "offset": 0,
        "slot": "356",
        "type": "t_mapping(t_uint256,t_uint256)"
      },
      {
        "astId": 4999,
        "contract": "contracts/IDToken.sol:IDToken",
        "label": "nonces",
        "offset": 0,
        "slot": "357",
        "type": "t_mapping(t_address,t_uint256)"
      }
    ],
    "types": {
      "t_address": {
        "encoding": "inplace",
        "label": "address",
        "numberOfBytes": "20"
      },
      "t_array(t_uint256)47_storage": {
        "base": "t_uint256",
        "encoding": "inplace",
        "label": "uint256[47]",
        "numberOfBytes": "1504"
      },
      "t_array(t_uint256)49_storage": {
        "base": "t_uint256",
        "encoding": "inplace",
        "label": "uint256[49]",
        "numberOfBytes": "1568"
      },
      "t_array(t_uint256)50_storage": {
        "base": "t_uint256",
        "encoding": "inplace",
        "label": "uint256[50]",
        "numberOfBytes": "1600"
      },
      "t_array(t_uint256)5_storage": {
        "base": "t_uint256",
        "encoding": "inplace",
        "label": "uint256[5]",
        "numberOfBytes": "160"
      },
      "t_bool": {
        "encoding": "inplace",
        "label": "bool",
        "numberOfBytes": "1"
      },
      "t_bytes32": {
        "encoding": "inplace",
        "label": "bytes32",
        "numberOfBytes": "32"
      },
      "t_mapping(t_address,t_bool)": {
        "encoding": "mapping",
        "key": "t_address",
        "label": "mapping(address => bool)",
        "numberOfBytes": "32",
        "value": "t_bool"
      },
      "t_mapping(t_address,t_mapping(t_address,t_bool))": {
        "encoding": "mapping",
        "key": "t_address",
        "label": "mapping(address => mapping(address => bool))",
        "numberOfBytes": "32",
        "value": "t_mapping(t_address,t_bool)"
      },
      "t_mapping(t_address,t_uint256)": {
        "encoding": "mapping",
        "key": "t_address",
        "label": "mapping(address => uint256)",
        "numberOfBytes": "32",
        "value": "t_uint256"
      },
      "t_mapping(t_bytes32,t_struct(RoleData)34_storage)": {
        "encoding": "mapping",
        "key": "t_bytes32",
        "label": "mapping(bytes32 => struct AccessControlUpgradeable.RoleData)",
        "numberOfBytes": "32",
        "value": "t_struct(RoleData)34_storage"
      },
      "t_mapping(t_uint256,t_mapping(t_address,t_uint256))": {
        "encoding": "mapping",
        "key": "t_uint256",
        "label": "mapping(uint256 => mapping(address => uint256))",
        "numberOfBytes": "32",
        "value": "t_mapping(t_address,t_uint256)"
      },
      "t_mapping(t_uint256,t_uint256)": {
        "encoding": "mapping",
        "key": "t_uint256",
        "label": "mapping(uint256 => uint256)",
        "numberOfBytes": "32",
        "value": "t_uint256"
      },
      "t_string_storage": {
        "encoding": "bytes",
        "label": "string",
        "numberOfBytes": "32"
      },
      "t_struct(RoleData)34_storage": {
        "encoding": "inplace",
        "label": "struct AccessControlUpgradeable.RoleData",
        "members": [
          {
            "astId": 31,
            "contract": "contracts/IDToken.sol:IDToken",
            "label": "members",
            "offset": 0,
            "slot": "0",
            "type": "t_mapping(t_address,t_bool)"
          },
          {
            "astId": 33,
            "contract": "contracts/IDToken.sol:IDToken",
            "label": "adminRole",
            "offset": 0,
            "slot": "1",
            "type": "t_bytes32"
          }
        ],
        "numberOfBytes": "64"
      },
      "t_uint256": {
        "encoding": "inplace",
        "label": "uint256",
        "numberOfBytes": "32"
      },
      "t_uint8": {
        "encoding": "inplace",
        "label": "uint8",
        "numberOfBytes": "1"
      }
    }
  }
}